{
  "contractName": "DetectFake",
  "abi": [
    {
      "inputs": [
        {
          "internalType": "uint256",
          "name": "",
          "type": "uint256"
        }
      ],
      "name": "codeList",
      "outputs": [
        {
          "internalType": "uint256",
          "name": "",
          "type": "uint256"
        }
      ],
      "stateMutability": "view",
      "type": "function",
      "constant": true
    },
    {
      "inputs": [],
      "name": "mapLen",
      "outputs": [
        {
          "internalType": "uint256",
          "name": "",
          "type": "uint256"
        }
      ],
      "stateMutability": "view",
      "type": "function",
      "constant": true
    },
    {
      "inputs": [],
      "name": "getProductCodes",
      "outputs": [
        {
          "internalType": "uint256[]",
          "name": "",
          "type": "uint256[]"
        }
      ],
      "stateMutability": "view",
      "type": "function",
      "constant": true
    },
    {
      "inputs": [],
      "name": "getNums",
      "outputs": [
        {
          "internalType": "uint256[15]",
          "name": "",
          "type": "uint256[15]"
        }
      ],
      "stateMutability": "view",
      "type": "function",
      "constant": true
    },
    {
      "inputs": [
        {
          "internalType": "uint256",
          "name": "num",
          "type": "uint256"
        }
      ],
      "name": "pushNums",
      "outputs": [],
      "stateMutability": "payable",
      "type": "function",
      "payable": true
    },
    {
      "inputs": [
        {
          "internalType": "uint256",
          "name": "_code",
          "type": "uint256"
        },
        {
          "internalType": "string",
          "name": "_brand",
          "type": "string"
        },
        {
          "internalType": "string",
          "name": "_model",
          "type": "string"
        },
        {
          "internalType": "uint256",
          "name": "_status",
          "type": "uint256"
        },
        {
          "internalType": "string",
          "name": "_description",
          "type": "string"
        },
        {
          "internalType": "string",
          "name": "_manufacturerName",
          "type": "string"
        },
        {
          "internalType": "string",
          "name": "_manufacturerLocation",
          "type": "string"
        }
      ],
      "name": "makeProduct",
      "outputs": [
        {
          "internalType": "uint256",
          "name": "",
          "type": "uint256"
        }
      ],
      "stateMutability": "payable",
      "type": "function",
      "payable": true
    },
    {
      "inputs": [
        {
          "internalType": "uint256",
          "name": "_code",
          "type": "uint256"
        }
      ],
      "name": "getNotOwnedCodeDetails",
      "outputs": [
        {
          "internalType": "string",
          "name": "",
          "type": "string"
        },
        {
          "internalType": "string",
          "name": "",
          "type": "string"
        },
        {
          "internalType": "uint256",
          "name": "",
          "type": "uint256"
        },
        {
          "internalType": "string",
          "name": "",
          "type": "string"
        },
        {
          "internalType": "string",
          "name": "",
          "type": "string"
        },
        {
          "internalType": "string",
          "name": "",
          "type": "string"
        }
      ],
      "stateMutability": "view",
      "type": "function",
      "constant": true
    },
    {
      "inputs": [
        {
          "internalType": "uint256",
          "name": "_code",
          "type": "uint256"
        },
        {
          "internalType": "string",
          "name": "_hashedEmailRetailer",
          "type": "string"
        }
      ],
      "name": "addRetailerToCode",
      "outputs": [
        {
          "internalType": "uint256",
          "name": "",
          "type": "uint256"
        }
      ],
      "stateMutability": "payable",
      "type": "function",
      "payable": true
    },
    {
      "inputs": [
        {
          "internalType": "uint256",
          "name": "_code",
          "type": "uint256"
        }
      ],
      "name": "getCustomerDetails",
      "outputs": [
        {
          "internalType": "string",
          "name": "",
          "type": "string"
        },
        {
          "internalType": "string",
          "name": "",
          "type": "string"
        }
      ],
      "stateMutability": "view",
      "type": "function",
      "constant": true
    },
    {
      "inputs": [
        {
          "internalType": "uint256",
          "name": "_hashedEmail",
          "type": "uint256"
        },
        {
          "internalType": "string",
          "name": "_retailerName",
          "type": "string"
        },
        {
          "internalType": "string",
          "name": "_retailerLocation",
          "type": "string"
        }
      ],
      "name": "createRetailer",
      "outputs": [
        {
          "internalType": "uint256",
          "name": "",
          "type": "uint256"
        }
      ],
      "stateMutability": "payable",
      "type": "function",
      "payable": true
    },
    {
      "inputs": [
        {
          "internalType": "uint256",
          "name": "_code",
          "type": "uint256"
        }
      ],
      "name": "getRetailerDetails",
      "outputs": [
        {
          "internalType": "string",
          "name": "",
          "type": "string"
        },
        {
          "internalType": "string",
          "name": "",
          "type": "string"
        }
      ],
      "stateMutability": "view",
      "type": "function",
      "constant": true
    }
  ],
  "bytecode": "0x6080604052600060045534801561001557600080fd5b5061157f806100256000396000f3fe60806040526004361061009c5760003560e01c806347ce00781161006457806347ce0078146101865780634f171a4e146101b15780639f0d7aaa146101f3578063a29dd71b14610230578063bd4f6a3314610260578063be193fcb1461028b5761009c565b80630b938810146100a1578063191decb9146100d1578063214db81c146100ed5780632c4ae7161461011d5780633bc9bb381461015b575b600080fd5b6100bb60048036038101906100b69190610f10565b6102c9565b6040516100c891906112c2565b60405180910390f35b6100eb60048036038101906100e69190610e93565b610342565b005b61010760048036038101906101029190610ebc565b61039c565b60405161011491906112c2565b60405180910390f35b34801561012957600080fd5b50610144600480360381019061013f9190610e93565b6103d3565b604051610152929190611207565b60405180910390f35b34801561016757600080fd5b50610170610523565b60405161017d91906112c2565b60405180910390f35b34801561019257600080fd5b5061019b610529565b6040516101a891906111c9565b60405180910390f35b3480156101bd57600080fd5b506101d860048036038101906101d39190610e93565b610574565b6040516101ea9695949392919061123e565b60405180910390f35b3480156101ff57600080fd5b5061021a60048036038101906102159190610e93565b6108d4565b60405161022791906112c2565b60405180910390f35b61024a60048036038101906102459190610f8f565b6108f8565b60405161025791906112c2565b60405180910390f35b34801561026c57600080fd5b50610275610a7e565b60405161028291906111e5565b60405180910390f35b34801561029757600080fd5b506102b260048036038101906102ad9190610e93565b610ad6565b6040516102c0929190611207565b60405180910390f35b60006102d3610c26565b83816000018190525082816020018190525080600360008781526020019081526020016000206000820151816000019080519060200190610315929190610c40565b506020820151816001019080519060200190610332929190610c40565b5090505060019150509392505050565b806005600454600f811061037f577f4e487b7100000000000000000000000000000000000000000000000000000000600052603260045260246000fd5b0181905550600160045461039391906113c0565b60048190555050565b6000816001600085815260200190815260200160002060070190805190602001906103c8929190610c40565b506001905092915050565b606080600260008481526020019081526020016000206000016002600085815260200190815260200160002060010181805461040e90611462565b80601f016020809104026020016040519081016040528092919081815260200182805461043a90611462565b80156104875780601f1061045c57610100808354040283529160200191610487565b820191906000526020600020905b81548152906001019060200180831161046a57829003601f168201915b5050505050915080805461049a90611462565b80601f01602080910402602001604051908101604052809291908181526020018280546104c690611462565b80156105135780601f106104e857610100808354040283529160200191610513565b820191906000526020600020905b8154815290600101906020018083116104f657829003601f168201915b5050505050905091509150915091565b60045481565b610531610cc6565b6005600f806020026040519081016040528092919082600f801561056a576020028201915b815481526020019060010190808311610556575b5050505050905090565b606080600060608060606001600088815260200190815260200160002060010160016000898152602001908152602001600020600201600160008a815260200190815260200160002060000154600160008b8152602001908152602001600020600301600160008c8152602001908152602001600020600401600160008d815260200190815260200160002060050185805461060f90611462565b80601f016020809104026020016040519081016040528092919081815260200182805461063b90611462565b80156106885780601f1061065d57610100808354040283529160200191610688565b820191906000526020600020905b81548152906001019060200180831161066b57829003601f168201915b5050505050955084805461069b90611462565b80601f01602080910402602001604051908101604052809291908181526020018280546106c790611462565b80156107145780601f106106e957610100808354040283529160200191610714565b820191906000526020600020905b8154815290600101906020018083116106f757829003601f168201915b5050505050945082805461072790611462565b80601f016020809104026020016040519081016040528092919081815260200182805461075390611462565b80156107a05780601f10610775576101008083540402835291602001916107a0565b820191906000526020600020905b81548152906001019060200180831161078357829003601f168201915b505050505092508180546107b390611462565b80601f01602080910402602001604051908101604052809291908181526020018280546107df90611462565b801561082c5780601f106108015761010080835404028352916020019161082c565b820191906000526020600020905b81548152906001019060200180831161080f57829003601f168201915b5050505050915080805461083f90611462565b80601f016020809104026020016040519081016040528092919081815260200182805461086b90611462565b80156108b85780601f1061088d576101008083540402835291602001916108b8565b820191906000526020600020905b81548152906001019060200180831161089b57829003601f168201915b5050505050905095509550955095509550955091939550919395565b601481815481106108e457600080fd5b906000526020600020016000915090505481565b6000610902610ce9565b87816020018190525086816040018190525085816000018181525050848160600181905250838160800181905250828160a0018190525080600160008b8152602001908152602001600020600082015181600001556020820151816001019080519060200190610973929190610c40565b506040820151816002019080519060200190610990929190610c40565b5060608201518160030190805190602001906109ad929190610c40565b5060808201518160040190805190602001906109ca929190610c40565b5060a08201518160050190805190602001906109e7929190610c40565b5060c0820151816006019080519060200190610a04929190610c40565b5060e0820151816007019080519060200190610a21929190610c40565b50610100820151816008019080519060200190610a3f929190610d35565b5090505060146103fe90806001815401808255809150506001900390600052602060002001600090919091909150556001915050979650505050505050565b60606014805480602002602001604051908101604052809291908181526020018280548015610acc57602002820191906000526020600020905b815481526020019060010190808311610ab8575b5050505050905090565b6060806003600084815260200190815260200160002060000160036000858152602001908152602001600020600101818054610b1190611462565b80601f0160208091040260200160405190810160405280929190818152602001828054610b3d90611462565b8015610b8a5780601f10610b5f57610100808354040283529160200191610b8a565b820191906000526020600020905b815481529060010190602001808311610b6d57829003601f168201915b50505050509150808054610b9d90611462565b80601f0160208091040260200160405190810160405280929190818152602001828054610bc990611462565b8015610c165780601f10610beb57610100808354040283529160200191610c16565b820191906000526020600020905b815481529060010190602001808311610bf957829003601f168201915b5050505050905091509150915091565b604051806040016040528060608152602001606081525090565b828054610c4c90611462565b90600052602060002090601f016020900481019282610c6e5760008555610cb5565b82601f10610c8757805160ff1916838001178555610cb5565b82800160010185558215610cb5579182015b82811115610cb4578251825591602001919060010190610c99565b5b509050610cc29190610d95565b5090565b604051806101e00160405280600f90602082028036833780820191505090505090565b6040518061012001604052806000815260200160608152602001606081526020016060815260200160608152602001606081526020016060815260200160608152602001606081525090565b828054828255906000526020600020908101928215610d84579160200282015b82811115610d83578251829080519060200190610d73929190610c40565b5091602001919060010190610d55565b5b509050610d919190610db2565b5090565b5b80821115610dae576000816000905550600101610d96565b5090565b5b80821115610dd25760008181610dc99190610dd6565b50600101610db3565b5090565b508054610de290611462565b6000825580601f10610df45750610e13565b601f016020900490600052602060002090810190610e129190610d95565b5b50565b6000610e29610e248461130e565b6112dd565b905082815260208101848484011115610e4157600080fd5b610e4c848285611420565b509392505050565b600082601f830112610e6557600080fd5b8135610e75848260208601610e16565b91505092915050565b600081359050610e8d81611532565b92915050565b600060208284031215610ea557600080fd5b6000610eb384828501610e7e565b91505092915050565b60008060408385031215610ecf57600080fd5b6000610edd85828601610e7e565b925050602083013567ffffffffffffffff811115610efa57600080fd5b610f0685828601610e54565b9150509250929050565b600080600060608486031215610f2557600080fd5b6000610f3386828701610e7e565b935050602084013567ffffffffffffffff811115610f5057600080fd5b610f5c86828701610e54565b925050604084013567ffffffffffffffff811115610f7957600080fd5b610f8586828701610e54565b9150509250925092565b600080600080600080600060e0888a031215610faa57600080fd5b6000610fb88a828b01610e7e565b975050602088013567ffffffffffffffff811115610fd557600080fd5b610fe18a828b01610e54565b965050604088013567ffffffffffffffff811115610ffe57600080fd5b61100a8a828b01610e54565b955050606061101b8a828b01610e7e565b945050608088013567ffffffffffffffff81111561103857600080fd5b6110448a828b01610e54565b93505060a088013567ffffffffffffffff81111561106157600080fd5b61106d8a828b01610e54565b92505060c088013567ffffffffffffffff81111561108a57600080fd5b6110968a828b01610e54565b91505092959891949750929550565b60006110b183836111ab565b60208301905092915050565b6110c681611358565b6110d08184611393565b92506110db8261133e565b8060005b8381101561110c5781516110f387826110a5565b96506110fe83611379565b9250506001810190506110df565b505050505050565b600061111f82611363565b611129818561139e565b935061113483611348565b8060005b8381101561116557815161114c88826110a5565b975061115783611386565b925050600181019050611138565b5085935050505092915050565b600061117d8261136e565b61118781856113af565b935061119781856020860161142f565b6111a081611521565b840191505092915050565b6111b481611416565b82525050565b6111c381611416565b82525050565b60006101e0820190506111df60008301846110bd565b92915050565b600060208201905081810360008301526111ff8184611114565b905092915050565b600060408201905081810360008301526112218185611172565b905081810360208301526112358184611172565b90509392505050565b600060c08201905081810360008301526112588189611172565b9050818103602083015261126c8188611172565b905061127b60408301876111ba565b818103606083015261128d8186611172565b905081810360808301526112a18185611172565b905081810360a08301526112b58184611172565b9050979650505050505050565b60006020820190506112d760008301846111ba565b92915050565b6000604051905081810181811067ffffffffffffffff82111715611304576113036114f2565b5b8060405250919050565b600067ffffffffffffffff821115611329576113286114f2565b5b601f19601f8301169050602081019050919050565b6000819050919050565b6000819050602082019050919050565b6000600f9050919050565b600081519050919050565b600081519050919050565b6000602082019050919050565b6000602082019050919050565b600081905092915050565b600082825260208201905092915050565b600082825260208201905092915050565b60006113cb82611416565b91506113d683611416565b9250827fffffffffffffffffffffffffffffffffffffffffffffffffffffffffffffffff0382111561140b5761140a611494565b5b828201905092915050565b6000819050919050565b82818337600083830152505050565b60005b8381101561144d578082015181840152602081019050611432565b8381111561145c576000848401525b50505050565b6000600282049050600182168061147a57607f821691505b6020821081141561148e5761148d6114c3565b5b50919050565b7f4e487b7100000000000000000000000000000000000000000000000000000000600052601160045260246000fd5b7f4e487b7100000000000000000000000000000000000000000000000000000000600052602260045260246000fd5b7f4e487b7100000000000000000000000000000000000000000000000000000000600052604160045260246000fd5b6000601f19601f8301169050919050565b61153b81611416565b811461154657600080fd5b5056fea264697066735822122088493e0dde1617dfea2824cc6ebf60867b88eae61cecd4fc5a7f8d3e5672774d64736f6c63430008000033",
  "immutableReferences": {},
  "source": "// SPDX-License-Identifier: MIT\r\npragma solidity ^0.8.0;\r\npragma experimental ABIEncoderV2;\r\n\r\ncontract DetectFake {\r\n    address owner;\r\n    struct product {\r\n        uint status;\r\n        string brand;\r\n        string model;\r\n        string description;\r\n        string manufacturerName;\r\n        string manufacturerLocation;\r\n        string manufacturerTimestamp;\r\n        string retailer;\r\n        string[] customers;\r\n    }\r\n\r\n    // A struct which helps create a new customer\r\n    struct customer {\r\n        string name;\r\n        string phone;\r\n        string[] code;\r\n        bool isValue;\r\n    }\r\n\r\n    struct retailer {\r\n        string name;\r\n        string location;\r\n    }\r\n\r\n    mapping (uint => product) productList;\r\n    mapping (uint => customer) customerList;\r\n    mapping (uint => retailer) retailerList;\r\n\r\n    uint public mapLen = 0;\r\n    uint[15] nums;\r\n    uint[] public codeList;\r\n\r\n    function getProductCodes() public view returns(uint[] memory){\r\n        return codeList;\r\n    }\r\n    function getNums() public view returns(uint[15] memory){\r\n        return nums;\r\n    }\r\n    function pushNums(uint num) public payable {\r\n        // return 1;\r\n        nums[mapLen] = num;\r\n        mapLen = mapLen+1;\r\n    }\r\n    // Function to create a new code for the product\r\n    function makeProduct(uint _code, string memory _brand, string memory _model, uint _status, string memory _description, string memory _manufacturerName, string memory _manufacturerLocation) public payable returns (uint) {\r\n        product memory newCode;\r\n        newCode.brand = _brand;\r\n        newCode.model = _model;\r\n        newCode.status = _status;\r\n        newCode.description = _description;\r\n        newCode.manufacturerName = _manufacturerName;\r\n        newCode.manufacturerLocation = _manufacturerLocation;\r\n        // newCode.manufacturerTimestamp = _manufacturerTimestamp;\r\n        productList[_code] = newCode;\r\n        codeList.push(1022);\r\n        // mapLen = mapLen+1;\r\n        return 1;\r\n    }\r\n\r\n    // Function for showing product details if the person scanning the product is not the owner\r\n    function getNotOwnedCodeDetails(uint _code) public view returns (string memory, string memory, uint, string memory, string memory, string memory) {\r\n        return (productList[_code].brand, productList[_code].model, productList[_code].status, productList[_code].description, productList[_code].manufacturerName, productList[_code].manufacturerLocation);\r\n    }\r\n\r\n    // Function for showing product details if the person scanning the product is the owner\r\n    // function getOwnedCodeDetails(uint _code) public view returns (string memory, string memory) {\r\n    //     return (retailerList[productList[_code].retailer].name, retailerList[productList[_code].retailer].location);\r\n    // }\r\n\r\n    // Function for creating a new retailer\r\n    function addRetailerToCode(uint _code, string memory _hashedEmailRetailer) public payable returns (uint) {\r\n        productList[_code].retailer = _hashedEmailRetailer;\r\n        return 1;\r\n    }\r\n\r\n    // Function for creating a new customer\r\n    // function createCustomer(string memory _hashedEmail, string memory _name, string memory _phone) public payable returns (bool) {\r\n    //     if (customerList[_hashedEmail].isValue) {\r\n    //         return false;\r\n    //     }\r\n    //     customer memory newCustomer;\r\n    //     newCustomer.name = _name;\r\n    //     newCustomer.phone = _phone;\r\n    //     newCustomer.isValue = true;\r\n    //     customerList[_hashedEmail] = newCustomer;\r\n    //     return true;\r\n    // }\r\n\r\n    function getCustomerDetails(uint _code) public view returns (string memory, string memory) {\r\n        return (customerList[_code].name, customerList[_code].phone);\r\n    }\r\n\r\n    function createRetailer(uint _hashedEmail, string memory _retailerName, string memory _retailerLocation) public payable returns (uint) {\r\n        retailer memory newRetailer;\r\n        newRetailer.name = _retailerName;\r\n        newRetailer.location = _retailerLocation;\r\n        retailerList[_hashedEmail] = newRetailer;\r\n        return 1;\r\n    }\r\n\r\n    function getRetailerDetails(uint _code) public view returns (string memory, string memory) {\r\n        return (retailerList[_code].name, retailerList[_code].location);\r\n    }\r\n\r\n}",
  "sourcePath": "C:\\Users\\Nikhil Satish\\Desktop\\7thSem\\Blockchain\\Project\\counterfeit\\FakeProduct\\contracts\\DetectFake.sol",
  "compiler": {
    "name": "solc",
    "version": "0.8.0+commit.c7dfd78e.Emscripten.clang"
  },
  "schemaVersion": "3.4.16",
  "updatedAt": "2023-11-09T08:59:47.939Z",
  "networkType": "ethereum",
  "devdoc": {
    "kind": "dev",
    "methods": {},
    "version": 1
  },
  "userdoc": {
    "kind": "user",
    "methods": {},
    "version": 1
  }
}