{
  "contractName": "Trial",
  "abi": [
    {
      "inputs": [
        {
          "internalType": "string",
          "name": "",
          "type": "string"
        }
      ],
      "name": "map",
      "outputs": [
        {
          "internalType": "uint256",
          "name": "",
          "type": "uint256"
        }
      ],
      "stateMutability": "view",
      "type": "function",
      "constant": true
    },
    {
      "inputs": [],
      "name": "sum",
      "outputs": [
        {
          "internalType": "uint256",
          "name": "",
          "type": "uint256"
        }
      ],
      "stateMutability": "view",
      "type": "function",
      "constant": true
    },
    {
      "inputs": [
        {
          "internalType": "uint256",
          "name": "num1",
          "type": "uint256"
        },
        {
          "internalType": "uint256",
          "name": "num2",
          "type": "uint256"
        }
      ],
      "name": "getResult",
      "outputs": [
        {
          "internalType": "uint256",
          "name": "",
          "type": "uint256"
        }
      ],
      "stateMutability": "payable",
      "type": "function",
      "payable": true
    },
    {
      "inputs": [
        {
          "internalType": "string",
          "name": "_name",
          "type": "string"
        }
      ],
      "name": "modString",
      "outputs": [],
      "stateMutability": "payable",
      "type": "function",
      "payable": true
    },
    {
      "inputs": [
        {
          "internalType": "string",
          "name": "_name",
          "type": "string"
        }
      ],
      "name": "getMapVal",
      "outputs": [
        {
          "internalType": "uint256",
          "name": "",
          "type": "uint256"
        }
      ],
      "stateMutability": "view",
      "type": "function",
      "constant": true
    },
    {
      "inputs": [
        {
          "internalType": "string",
          "name": "_name",
          "type": "string"
        }
      ],
      "name": "giveString",
      "outputs": [
        {
          "internalType": "uint256",
          "name": "",
          "type": "uint256"
        },
        {
          "internalType": "string",
          "name": "",
          "type": "string"
        }
      ],
      "stateMutability": "view",
      "type": "function",
      "constant": true
    },
    {
      "inputs": [],
      "name": "modSum",
      "outputs": [
        {
          "internalType": "uint256",
          "name": "",
          "type": "uint256"
        }
      ],
      "stateMutability": "payable",
      "type": "function",
      "payable": true
    },
    {
      "inputs": [],
      "name": "getSum",
      "outputs": [
        {
          "internalType": "uint256",
          "name": "",
          "type": "uint256"
        }
      ],
      "stateMutability": "view",
      "type": "function",
      "constant": true
    }
  ],
  "bytecode": "0x6080604052600a600055600c6001556002805534801561001e57600080fd5b506106e18061002e6000396000f3fe60806040526004361061007b5760003560e01c8063853255cc1161004e578063853255cc14610143578063949f80c51461016e578063983733dc1461019e578063fbf51d03146101dc5761007b565b806323814fc51461008057806327c0a9c4146100bd5780633aa54f50146100db578063569c5f6d14610118575b600080fd5b34801561008c57600080fd5b506100a760048036038101906100a291906103a3565b6101f8565b6040516100b491906104b0565b60405180910390f35b6100c5610226565b6040516100d291906104b0565b60405180910390f35b3480156100e757600080fd5b5061010260048036038101906100fd91906103a3565b610245565b60405161010f91906104b0565b60405180910390f35b34801561012457600080fd5b5061012d61026d565b60405161013a91906104b0565b60405180910390f35b34801561014f57600080fd5b50610158610277565b60405161016591906104b0565b60405180910390f35b610188600480360381019061018391906103e4565b61027d565b60405161019591906104b0565b60405180910390f35b3480156101aa57600080fd5b506101c560048036038101906101c091906103a3565b61029c565b6040516101d39291906104cb565b60405180910390f35b6101f660048036038101906101f191906103a3565b6102fe565b005b6003818051602081018201805184825260208301602085012081835280955050505050506000915090505481565b600060036002546102379190610583565b600281905550600254905090565b60006003826040516102579190610499565b9081526020016040518091039020549050919050565b6000600254905090565b60025481565b6000818361028b9190610583565b600281905550600254905092915050565b600060606003836040516102b09190610499565b9081526020016040518091039020546040518060400160405280600281526020017f686900000000000000000000000000000000000000000000000000000000000081525091509150915091565b6002546003826040516103119190610499565b90815260200160405180910390208190555050565b60006103396103348461052c565b6104fb565b90508281526020810184848401111561035157600080fd5b61035c8482856105e3565b509392505050565b600082601f83011261037557600080fd5b8135610385848260208601610326565b91505092915050565b60008135905061039d81610694565b92915050565b6000602082840312156103b557600080fd5b600082013567ffffffffffffffff8111156103cf57600080fd5b6103db84828501610364565b91505092915050565b600080604083850312156103f757600080fd5b60006104058582860161038e565b92505060206104168582860161038e565b9150509250929050565b600061042b8261055c565b6104358185610567565b93506104458185602086016105f2565b61044e81610683565b840191505092915050565b60006104648261055c565b61046e8185610578565b935061047e8185602086016105f2565b80840191505092915050565b610493816105d9565b82525050565b60006104a58284610459565b915081905092915050565b60006020820190506104c5600083018461048a565b92915050565b60006040820190506104e0600083018561048a565b81810360208301526104f28184610420565b90509392505050565b6000604051905081810181811067ffffffffffffffff8211171561052257610521610654565b5b8060405250919050565b600067ffffffffffffffff82111561054757610546610654565b5b601f19601f8301169050602081019050919050565b600081519050919050565b600082825260208201905092915050565b600081905092915050565b600061058e826105d9565b9150610599836105d9565b9250827fffffffffffffffffffffffffffffffffffffffffffffffffffffffffffffffff038211156105ce576105cd610625565b5b828201905092915050565b6000819050919050565b82818337600083830152505050565b60005b838110156106105780820151818401526020810190506105f5565b8381111561061f576000848401525b50505050565b7f4e487b7100000000000000000000000000000000000000000000000000000000600052601160045260246000fd5b7f4e487b7100000000000000000000000000000000000000000000000000000000600052604160045260246000fd5b6000601f19601f8301169050919050565b61069d816105d9565b81146106a857600080fd5b5056fea2646970667358221220bdbcf54bcfa4dec18f46b44b6e2bc116209806b31bffbeb41eaebd7e210bdadd64736f6c63430008000033",
  "immutableReferences": {},
  "source": "// SPDX-License-Identifier: MIT\r\npragma solidity ^0.8.0;\r\n\r\ncontract Trial{\r\n    uint a=10;\r\n    uint b=12;\r\n    uint public sum = 2;\r\n    mapping(string => uint) public map;\r\n    mapping(uint => string) check;\r\n    function getResult(uint num1, uint num2) public payable returns(uint){\r\n        sum=num1+num2;\r\n        return sum;\r\n    }\r\n    function modString(string memory _name) public payable{\r\n        map[_name] = sum;\r\n    }\r\n    function getMapVal(string memory _name) public view returns (uint){\r\n        return map[_name];\r\n    }\r\n    function giveString(string memory _name) public view returns (uint, string memory){\r\n        return (map[_name], \"hi\");\r\n    }\r\n    function modSum() public payable returns(uint){\r\n        sum = sum+3;\r\n        return sum;\r\n    }\r\n    function getSum() public view returns(uint){\r\n        return sum;\r\n    }\r\n}",
  "sourcePath": "C:\\Users\\Nikhil Satish\\Desktop\\7thSem\\Blockchain\\Project\\counterfeit\\FakeProduct\\contracts\\Trial.sol",
  "compiler": {
    "name": "solc",
    "version": "0.8.0+commit.c7dfd78e.Emscripten.clang"
  },
  "schemaVersion": "3.4.16",
  "updatedAt": "2023-11-07T19:11:41.124Z",
  "networkType": "ethereum",
  "devdoc": {
    "kind": "dev",
    "methods": {},
    "version": 1
  },
  "userdoc": {
    "kind": "user",
    "methods": {},
    "version": 1
  }
}