{
  "contractName": "DetectFake",
  "abi": [
    {
      "inputs": [
        {
          "internalType": "string",
          "name": "_code",
          "type": "string"
        },
        {
          "internalType": "string",
          "name": "_brand",
          "type": "string"
        },
        {
          "internalType": "string",
          "name": "_model",
          "type": "string"
        },
        {
          "internalType": "uint256",
          "name": "_status",
          "type": "uint256"
        },
        {
          "internalType": "string",
          "name": "_description",
          "type": "string"
        },
        {
          "internalType": "string",
          "name": "_manufactuerName",
          "type": "string"
        },
        {
          "internalType": "string",
          "name": "_manufactuerLocation",
          "type": "string"
        },
        {
          "internalType": "string",
          "name": "_manufactuerTimestamp",
          "type": "string"
        }
      ],
      "name": "createCode",
      "outputs": [
        {
          "internalType": "uint256",
          "name": "",
          "type": "uint256"
        }
      ],
      "stateMutability": "payable",
      "type": "function",
      "payable": true
    },
    {
      "inputs": [
        {
          "internalType": "string",
          "name": "_code",
          "type": "string"
        }
      ],
      "name": "getNotOwnedCodeDetails",
      "outputs": [
        {
          "internalType": "string",
          "name": "",
          "type": "string"
        },
        {
          "internalType": "string",
          "name": "",
          "type": "string"
        },
        {
          "internalType": "uint256",
          "name": "",
          "type": "uint256"
        },
        {
          "internalType": "string",
          "name": "",
          "type": "string"
        },
        {
          "internalType": "string",
          "name": "",
          "type": "string"
        },
        {
          "internalType": "string",
          "name": "",
          "type": "string"
        },
        {
          "internalType": "string",
          "name": "",
          "type": "string"
        }
      ],
      "stateMutability": "view",
      "type": "function",
      "constant": true
    },
    {
      "inputs": [
        {
          "internalType": "string",
          "name": "_code",
          "type": "string"
        }
      ],
      "name": "getOwnedCodeDetails",
      "outputs": [
        {
          "internalType": "string",
          "name": "",
          "type": "string"
        },
        {
          "internalType": "string",
          "name": "",
          "type": "string"
        }
      ],
      "stateMutability": "view",
      "type": "function",
      "constant": true
    },
    {
      "inputs": [
        {
          "internalType": "string",
          "name": "_code",
          "type": "string"
        },
        {
          "internalType": "string",
          "name": "_hashedEmailRetailer",
          "type": "string"
        }
      ],
      "name": "addRetailerToCode",
      "outputs": [
        {
          "internalType": "uint256",
          "name": "",
          "type": "uint256"
        }
      ],
      "stateMutability": "payable",
      "type": "function",
      "payable": true
    },
    {
      "inputs": [
        {
          "internalType": "string",
          "name": "_hashedEmail",
          "type": "string"
        },
        {
          "internalType": "string",
          "name": "_name",
          "type": "string"
        },
        {
          "internalType": "string",
          "name": "_phone",
          "type": "string"
        }
      ],
      "name": "createCustomer",
      "outputs": [
        {
          "internalType": "bool",
          "name": "",
          "type": "bool"
        }
      ],
      "stateMutability": "payable",
      "type": "function",
      "payable": true
    },
    {
      "inputs": [
        {
          "internalType": "string",
          "name": "_code",
          "type": "string"
        }
      ],
      "name": "getCustomerDetails",
      "outputs": [
        {
          "internalType": "string",
          "name": "",
          "type": "string"
        },
        {
          "internalType": "string",
          "name": "",
          "type": "string"
        }
      ],
      "stateMutability": "view",
      "type": "function",
      "constant": true
    },
    {
      "inputs": [
        {
          "internalType": "string",
          "name": "_hashedEmail",
          "type": "string"
        },
        {
          "internalType": "string",
          "name": "_retailerName",
          "type": "string"
        },
        {
          "internalType": "string",
          "name": "_retailerLocation",
          "type": "string"
        }
      ],
      "name": "createRetailer",
      "outputs": [
        {
          "internalType": "uint256",
          "name": "",
          "type": "uint256"
        }
      ],
      "stateMutability": "payable",
      "type": "function",
      "payable": true
    },
    {
      "inputs": [
        {
          "internalType": "string",
          "name": "_code",
          "type": "string"
        }
      ],
      "name": "getRetailerDetails",
      "outputs": [
        {
          "internalType": "string",
          "name": "",
          "type": "string"
        },
        {
          "internalType": "string",
          "name": "",
          "type": "string"
        }
      ],
      "stateMutability": "view",
      "type": "function",
      "constant": true
    }
  ],
  "bytecode": "0x608060405234801561001057600080fd5b50611779806100206000396000f3fe60806040526004361061007b5760003560e01c8063b3e19d1a1161004e578063b3e19d1a14610161578063b5bd438b14610191578063c91e74e3146101c1578063ea788dd1146101ff5761007b565b80631099968914610080578063285e9e16146100b057806355b059e8146100ee5780637ab9c57c1461011e575b600080fd5b61009a60048036038101906100959190611201565b61023d565b6040516100a7919061157b565b60405180910390f35b3480156100bc57600080fd5b506100d760048036038101906100d291906110bd565b6103ad565b6040516100e59291906114ab565b60405180910390f35b6101086004803603810190610103919061116a565b610553565b6040516101159190611490565b60405180910390f35b34801561012a57600080fd5b50610145600480360381019061014091906110bd565b610663565b60405161015897969594939291906114e2565b60405180910390f35b61017b600480360381019061017691906110fe565b610ab7565b604051610188919061157b565b60405180910390f35b6101ab60048036038101906101a6919061116a565b610af9565b6040516101b8919061157b565b60405180910390f35b3480156101cd57600080fd5b506101e860048036038101906101e391906110bd565b610b7d565b6040516101f69291906114ab565b60405180910390f35b34801561020b57600080fd5b50610226600480360381019061022191906110bd565b610ce3565b6040516102349291906114ab565b60405180910390f35b6000610247610e49565b88816020018190525087816040018190525086816000018181525050858160600181905250848160800181905250838160a00181905250828160c001819052508060018b6040516102989190611462565b90815260200160405180910390206000820151816000015560208201518160010190805190602001906102cc929190610e95565b5060408201518160020190805190602001906102e9929190610e95565b506060820151816003019080519060200190610306929190610e95565b506080820151816004019080519060200190610323929190610e95565b5060a0820151816005019080519060200190610340929190610e95565b5060c082015181600601908051906020019061035d929190610e95565b5060e082015181600701908051906020019061037a929190610e95565b50610100820151816008019080519060200190610398929190610f1b565b50905050600191505098975050505050505050565b60608060036001846040516103c29190611462565b90815260200160405180910390206007016040516103e09190611479565b908152602001604051809103902060000160036001856040516104039190611462565b90815260200160405180910390206007016040516104219190611479565b908152602001604051809103902060010181805461043e9061168b565b80601f016020809104026020016040519081016040528092919081815260200182805461046a9061168b565b80156104b75780601f1061048c576101008083540402835291602001916104b7565b820191906000526020600020905b81548152906001019060200180831161049a57829003601f168201915b505050505091508080546104ca9061168b565b80601f01602080910402602001604051908101604052809291908181526020018280546104f69061168b565b80156105435780601f1061051857610100808354040283529160200191610543565b820191906000526020600020905b81548152906001019060200180831161052657829003601f168201915b5050505050905091509150915091565b60006002846040516105659190611462565b908152602001604051809103902060030160009054906101000a900460ff1615610592576000905061065c565b61059a610f7b565b8381600001819052508281602001819052506001816060019015159081151581525050806002866040516105ce9190611462565b908152602001604051809103902060008201518160000190805190602001906105f8929190610e95565b506020820151816001019080519060200190610615929190610e95565b506040820151816002019080519060200190610632929190610f1b565b5060608201518160030160006101000a81548160ff02191690831515021790555090505060019150505b9392505050565b606080600060608060608060018860405161067e9190611462565b908152602001604051809103902060010160018960405161069f9190611462565b908152602001604051809103902060020160018a6040516106c09190611462565b90815260200160405180910390206000015460018b6040516106e29190611462565b908152602001604051809103902060030160018c6040516107039190611462565b908152602001604051809103902060040160018d6040516107249190611462565b908152602001604051809103902060050160018e6040516107459190611462565b90815260200160405180910390206006018680546107629061168b565b80601f016020809104026020016040519081016040528092919081815260200182805461078e9061168b565b80156107db5780601f106107b0576101008083540402835291602001916107db565b820191906000526020600020905b8154815290600101906020018083116107be57829003601f168201915b505050505096508580546107ee9061168b565b80601f016020809104026020016040519081016040528092919081815260200182805461081a9061168b565b80156108675780601f1061083c57610100808354040283529160200191610867565b820191906000526020600020905b81548152906001019060200180831161084a57829003601f168201915b5050505050955083805461087a9061168b565b80601f01602080910402602001604051908101604052809291908181526020018280546108a69061168b565b80156108f35780601f106108c8576101008083540402835291602001916108f3565b820191906000526020600020905b8154815290600101906020018083116108d657829003601f168201915b505050505093508280546109069061168b565b80601f01602080910402602001604051908101604052809291908181526020018280546109329061168b565b801561097f5780601f106109545761010080835404028352916020019161097f565b820191906000526020600020905b81548152906001019060200180831161096257829003601f168201915b505050505092508180546109929061168b565b80601f01602080910402602001604051908101604052809291908181526020018280546109be9061168b565b8015610a0b5780601f106109e057610100808354040283529160200191610a0b565b820191906000526020600020905b8154815290600101906020018083116109ee57829003601f168201915b50505050509150808054610a1e9061168b565b80601f0160208091040260200160405190810160405280929190818152602001828054610a4a9061168b565b8015610a975780601f10610a6c57610100808354040283529160200191610a97565b820191906000526020600020905b815481529060010190602001808311610a7a57829003601f168201915b505050505090509650965096509650965096509650919395979092949650565b600081600184604051610aca9190611462565b90815260200160405180910390206007019080519060200190610aee929190610e95565b506001905092915050565b6000610b03610fa5565b83816000018190525082816020018190525080600386604051610b269190611462565b90815260200160405180910390206000820151816000019080519060200190610b50929190610e95565b506020820151816001019080519060200190610b6d929190610e95565b5090505060019150509392505050565b606080600283604051610b909190611462565b9081526020016040518091039020600001600284604051610bb19190611462565b9081526020016040518091039020600101818054610bce9061168b565b80601f0160208091040260200160405190810160405280929190818152602001828054610bfa9061168b565b8015610c475780601f10610c1c57610100808354040283529160200191610c47565b820191906000526020600020905b815481529060010190602001808311610c2a57829003601f168201915b50505050509150808054610c5a9061168b565b80601f0160208091040260200160405190810160405280929190818152602001828054610c869061168b565b8015610cd35780601f10610ca857610100808354040283529160200191610cd3565b820191906000526020600020905b815481529060010190602001808311610cb657829003601f168201915b5050505050905091509150915091565b606080600383604051610cf69190611462565b9081526020016040518091039020600001600384604051610d179190611462565b9081526020016040518091039020600101818054610d349061168b565b80601f0160208091040260200160405190810160405280929190818152602001828054610d609061168b565b8015610dad5780601f10610d8257610100808354040283529160200191610dad565b820191906000526020600020905b815481529060010190602001808311610d9057829003601f168201915b50505050509150808054610dc09061168b565b80601f0160208091040260200160405190810160405280929190818152602001828054610dec9061168b565b8015610e395780601f10610e0e57610100808354040283529160200191610e39565b820191906000526020600020905b815481529060010190602001808311610e1c57829003601f168201915b5050505050905091509150915091565b6040518061012001604052806000815260200160608152602001606081526020016060815260200160608152602001606081526020016060815260200160608152602001606081525090565b828054610ea19061168b565b90600052602060002090601f016020900481019282610ec35760008555610f0a565b82601f10610edc57805160ff1916838001178555610f0a565b82800160010185558215610f0a579182015b82811115610f09578251825591602001919060010190610eee565b5b509050610f179190610fbf565b5090565b828054828255906000526020600020908101928215610f6a579160200282015b82811115610f69578251829080519060200190610f59929190610e95565b5091602001919060010190610f3b565b5b509050610f779190610fdc565b5090565b60405180608001604052806060815260200160608152602001606081526020016000151581525090565b604051806040016040528060608152602001606081525090565b5b80821115610fd8576000816000905550600101610fc0565b5090565b5b80821115610ffc5760008181610ff39190611000565b50600101610fdd565b5090565b50805461100c9061168b565b6000825580601f1061101e575061103d565b601f01602090049060005260206000209081019061103c9190610fbf565b5b50565b600061105361104e846115c7565b611596565b90508281526020810184848401111561106b57600080fd5b611076848285611649565b509392505050565b600082601f83011261108f57600080fd5b813561109f848260208601611040565b91505092915050565b6000813590506110b78161172c565b92915050565b6000602082840312156110cf57600080fd5b600082013567ffffffffffffffff8111156110e957600080fd5b6110f58482850161107e565b91505092915050565b6000806040838503121561111157600080fd5b600083013567ffffffffffffffff81111561112b57600080fd5b6111378582860161107e565b925050602083013567ffffffffffffffff81111561115457600080fd5b6111608582860161107e565b9150509250929050565b60008060006060848603121561117f57600080fd5b600084013567ffffffffffffffff81111561119957600080fd5b6111a58682870161107e565b935050602084013567ffffffffffffffff8111156111c257600080fd5b6111ce8682870161107e565b925050604084013567ffffffffffffffff8111156111eb57600080fd5b6111f78682870161107e565b9150509250925092565b600080600080600080600080610100898b03121561121e57600080fd5b600089013567ffffffffffffffff81111561123857600080fd5b6112448b828c0161107e565b985050602089013567ffffffffffffffff81111561126157600080fd5b61126d8b828c0161107e565b975050604089013567ffffffffffffffff81111561128a57600080fd5b6112968b828c0161107e565b96505060606112a78b828c016110a8565b955050608089013567ffffffffffffffff8111156112c457600080fd5b6112d08b828c0161107e565b94505060a089013567ffffffffffffffff8111156112ed57600080fd5b6112f98b828c0161107e565b93505060c089013567ffffffffffffffff81111561131657600080fd5b6113228b828c0161107e565b92505060e089013567ffffffffffffffff81111561133f57600080fd5b61134b8b828c0161107e565b9150509295985092959890939650565b61136481611633565b82525050565b60006113758261160c565b61137f8185611617565b935061138f818560208601611658565b6113988161171b565b840191505092915050565b60006113ae8261160c565b6113b88185611628565b93506113c8818560208601611658565b80840191505092915050565b600081546113e18161168b565b6113eb8186611628565b9450600182166000811461140657600181146114175761144a565b60ff1983168652818601935061144a565b611420856115f7565b60005b8381101561144257815481890152600182019150602081019050611423565b838801955050505b50505092915050565b61145c8161163f565b82525050565b600061146e82846113a3565b915081905092915050565b600061148582846113d4565b915081905092915050565b60006020820190506114a5600083018461135b565b92915050565b600060408201905081810360008301526114c5818561136a565b905081810360208301526114d9818461136a565b90509392505050565b600060e08201905081810360008301526114fc818a61136a565b90508181036020830152611510818961136a565b905061151f6040830188611453565b8181036060830152611531818761136a565b90508181036080830152611545818661136a565b905081810360a0830152611559818561136a565b905081810360c083015261156d818461136a565b905098975050505050505050565b60006020820190506115906000830184611453565b92915050565b6000604051905081810181811067ffffffffffffffff821117156115bd576115bc6116ec565b5b8060405250919050565b600067ffffffffffffffff8211156115e2576115e16116ec565b5b601f19601f8301169050602081019050919050565b60008190508160005260206000209050919050565b600081519050919050565b600082825260208201905092915050565b600081905092915050565b60008115159050919050565b6000819050919050565b82818337600083830152505050565b60005b8381101561167657808201518184015260208101905061165b565b83811115611685576000848401525b50505050565b600060028204905060018216806116a357607f821691505b602082108114156116b7576116b66116bd565b5b50919050565b7f4e487b7100000000000000000000000000000000000000000000000000000000600052602260045260246000fd5b7f4e487b7100000000000000000000000000000000000000000000000000000000600052604160045260246000fd5b6000601f19601f8301169050919050565b6117358161163f565b811461174057600080fd5b5056fea26469706673582212205d50d234bebdba47c8fecc6f86cbaa7fd8c93b748364cd037bcbf51a92772a0564736f6c63430008000033",
  "immutableReferences": {},
  "source": "pragma solidity ^0.8.0;\r\npragma experimental ABIEncoderV2;\r\n\r\ncontract DetectFake {\r\n    address owner;\r\n    struct codeObj {\r\n        uint status;\r\n        string brand;\r\n        string model;\r\n        string description;\r\n        string manufactuerName;\r\n        string manufactuerLocation;\r\n        string manufactuerTimestamp;\r\n        string retailer;\r\n        string[] customers;\r\n    }\r\n\r\n    // A struct which helps create a new customer\r\n    struct customerObj {\r\n        string name;\r\n        string phone;\r\n        string[] code;\r\n        bool isValue;\r\n    }\r\n\r\n    struct retailerObj {\r\n        string name;\r\n        string location;\r\n    }\r\n\r\n    mapping (string => codeObj) codeArr;\r\n    mapping (string => customerObj) customerArr;\r\n    mapping (string => retailerObj) retailerArr;\r\n    /*\r\n    function createOwner() public {\r\n        owner = msg.sender;\r\n    }\r\n\r\n    modifier onlyOwner {\r\n        require(msg.sender == owner);\r\n        _;\r\n    }\r\n\r\n    function whoIsOwner() public view returns (address) {\r\n        return owner;\r\n    }\r\n*/\r\n    // Function to create a new code for the product\r\n    function createCode(string memory _code, string memory _brand, string memory _model, uint _status, string memory _description, string memory _manufactuerName, string memory _manufactuerLocation, string memory _manufactuerTimestamp) public payable returns (uint) {\r\n        codeObj memory newCode;\r\n        newCode.brand = _brand;\r\n        newCode.model = _model;\r\n        newCode.status = _status;\r\n        newCode.description = _description;\r\n        newCode.manufactuerName = _manufactuerName;\r\n        newCode.manufactuerLocation = _manufactuerLocation;\r\n        newCode.manufactuerTimestamp = _manufactuerTimestamp;\r\n        codeArr[_code] = newCode;\r\n        return 1;\r\n    }\r\n\r\n    // Function for showing product details if the person scanning the product is not the owner\r\n    function getNotOwnedCodeDetails(string memory _code) public view returns (string memory, string memory, uint, string memory, string memory, string memory, string memory) {\r\n        return (codeArr[_code].brand, codeArr[_code].model, codeArr[_code].status, codeArr[_code].description, codeArr[_code].manufactuerName, codeArr[_code].manufactuerLocation, codeArr[_code].manufactuerTimestamp);\r\n    }\r\n\r\n    // Function for showing product details if the person scanning the product is the owner\r\n    function getOwnedCodeDetails(string memory _code) public view returns (string memory, string memory) {\r\n        return (retailerArr[codeArr[_code].retailer].name, retailerArr[codeArr[_code].retailer].location);\r\n    }\r\n\r\n    // Function for creating a new retailer\r\n    function addRetailerToCode(string memory _code, string memory _hashedEmailRetailer) public payable returns (uint) {\r\n        codeArr[_code].retailer = _hashedEmailRetailer;\r\n        return 1;\r\n    }\r\n\r\n    // Function for creating a new customer\r\n    function createCustomer(string memory _hashedEmail, string memory _name, string memory _phone) public payable returns (bool) {\r\n        if (customerArr[_hashedEmail].isValue) {\r\n            return false;\r\n        }\r\n        customerObj memory newCustomer;\r\n        newCustomer.name = _name;\r\n        newCustomer.phone = _phone;\r\n        newCustomer.isValue = true;\r\n        customerArr[_hashedEmail] = newCustomer;\r\n        return true;\r\n    }\r\n\r\n    function getCustomerDetails(string memory _code) public view returns (string memory, string memory) {\r\n        return (customerArr[_code].name, customerArr[_code].phone);\r\n    }\r\n\r\n    function createRetailer(string memory _hashedEmail, string memory _retailerName, string memory _retailerLocation) public payable returns (uint) {\r\n        retailerObj memory newRetailer;\r\n        newRetailer.name = _retailerName;\r\n        newRetailer.location = _retailerLocation;\r\n        retailerArr[_hashedEmail] = newRetailer;\r\n        return 1;\r\n    }\r\n\r\n    function getRetailerDetails(string memory _code) public view returns (string memory, string memory) {\r\n        return (retailerArr[_code].name, retailerArr[_code].location);\r\n    }\r\n\r\n}",
  "sourcePath": "C:\\Users\\Nikhil Satish\\Desktop\\7thSem\\Blockchain\\Project\\FakeProduct\\contracts\\DetectFake.sol",
  "compiler": {
    "name": "solc",
    "version": "0.8.0+commit.c7dfd78e.Emscripten.clang"
  },
  "schemaVersion": "3.4.16",
  "updatedAt": "2023-10-15T14:32:32.000Z",
  "networkType": "ethereum",
  "devdoc": {
    "kind": "dev",
    "methods": {},
    "version": 1
  },
  "userdoc": {
    "kind": "user",
    "methods": {},
    "version": 1
  }
}