{
  "contractName": "DetectFake",
  "abi": [
    {
      "inputs": [
        {
          "internalType": "string",
          "name": "_code",
          "type": "string"
        },
        {
          "internalType": "string",
          "name": "_brand",
          "type": "string"
        },
        {
          "internalType": "string",
          "name": "_model",
          "type": "string"
        },
        {
          "internalType": "uint256",
          "name": "_status",
          "type": "uint256"
        },
        {
          "internalType": "string",
          "name": "_description",
          "type": "string"
        },
        {
          "internalType": "string",
          "name": "_manufacturerName",
          "type": "string"
        },
        {
          "internalType": "string",
          "name": "_manufacturerLocation",
          "type": "string"
        }
      ],
      "name": "makeProduct",
      "outputs": [
        {
          "internalType": "uint256",
          "name": "",
          "type": "uint256"
        }
      ],
      "stateMutability": "payable",
      "type": "function"
    },
    {
      "inputs": [
        {
          "internalType": "string",
          "name": "_code",
          "type": "string"
        }
      ],
      "name": "getNotOwnedCodeDetails",
      "outputs": [
        {
          "internalType": "string",
          "name": "",
          "type": "string"
        },
        {
          "internalType": "string",
          "name": "",
          "type": "string"
        },
        {
          "internalType": "uint256",
          "name": "",
          "type": "uint256"
        },
        {
          "internalType": "string",
          "name": "",
          "type": "string"
        },
        {
          "internalType": "string",
          "name": "",
          "type": "string"
        },
        {
          "internalType": "string",
          "name": "",
          "type": "string"
        },
        {
          "internalType": "string",
          "name": "",
          "type": "string"
        }
      ],
      "stateMutability": "view",
      "type": "function"
    },
    {
      "inputs": [
        {
          "internalType": "string",
          "name": "_code",
          "type": "string"
        }
      ],
      "name": "getOwnedCodeDetails",
      "outputs": [
        {
          "internalType": "string",
          "name": "",
          "type": "string"
        },
        {
          "internalType": "string",
          "name": "",
          "type": "string"
        }
      ],
      "stateMutability": "view",
      "type": "function"
    },
    {
      "inputs": [
        {
          "internalType": "string",
          "name": "_code",
          "type": "string"
        },
        {
          "internalType": "string",
          "name": "_hashedEmailRetailer",
          "type": "string"
        }
      ],
      "name": "addRetailerToCode",
      "outputs": [
        {
          "internalType": "uint256",
          "name": "",
          "type": "uint256"
        }
      ],
      "stateMutability": "payable",
      "type": "function"
    },
    {
      "inputs": [
        {
          "internalType": "string",
          "name": "_hashedEmail",
          "type": "string"
        },
        {
          "internalType": "string",
          "name": "_name",
          "type": "string"
        },
        {
          "internalType": "string",
          "name": "_phone",
          "type": "string"
        }
      ],
      "name": "createCustomer",
      "outputs": [
        {
          "internalType": "bool",
          "name": "",
          "type": "bool"
        }
      ],
      "stateMutability": "payable",
      "type": "function"
    },
    {
      "inputs": [
        {
          "internalType": "string",
          "name": "_code",
          "type": "string"
        }
      ],
      "name": "getCustomerDetails",
      "outputs": [
        {
          "internalType": "string",
          "name": "",
          "type": "string"
        },
        {
          "internalType": "string",
          "name": "",
          "type": "string"
        }
      ],
      "stateMutability": "view",
      "type": "function"
    },
    {
      "inputs": [
        {
          "internalType": "string",
          "name": "_hashedEmail",
          "type": "string"
        },
        {
          "internalType": "string",
          "name": "_retailerName",
          "type": "string"
        },
        {
          "internalType": "string",
          "name": "_retailerLocation",
          "type": "string"
        }
      ],
      "name": "createRetailer",
      "outputs": [
        {
          "internalType": "uint256",
          "name": "",
          "type": "uint256"
        }
      ],
      "stateMutability": "payable",
      "type": "function"
    },
    {
      "inputs": [
        {
          "internalType": "string",
          "name": "_code",
          "type": "string"
        }
      ],
      "name": "getRetailerDetails",
      "outputs": [
        {
          "internalType": "string",
          "name": "",
          "type": "string"
        },
        {
          "internalType": "string",
          "name": "",
          "type": "string"
        }
      ],
      "stateMutability": "view",
      "type": "function"
    }
  ],
  "bytecode": "0x608060405234801561001057600080fd5b50611743806100206000396000f3fe60806040526004361061007b5760003560e01c8063b3e19d1a1161004e578063b3e19d1a14610161578063b5bd438b14610191578063c91e74e3146101c1578063ea788dd1146101ff5761007b565b8063180de90514610080578063285e9e16146100b057806355b059e8146100ee5780637ab9c57c1461011e575b600080fd5b61009a600480360381019061009591906111f7565b61023d565b6040516100a79190611545565b60405180910390f35b3480156100bc57600080fd5b506100d760048036038101906100d291906110b3565b6103a3565b6040516100e5929190611475565b60405180910390f35b61010860048036038101906101039190611160565b610549565b604051610115919061145a565b60405180910390f35b34801561012a57600080fd5b50610145600480360381019061014091906110b3565b610659565b60405161015897969594939291906114ac565b60405180910390f35b61017b600480360381019061017691906110f4565b610aad565b6040516101889190611545565b60405180910390f35b6101ab60048036038101906101a69190611160565b610aef565b6040516101b89190611545565b60405180910390f35b3480156101cd57600080fd5b506101e860048036038101906101e391906110b3565b610b73565b6040516101f6929190611475565b60405180910390f35b34801561020b57600080fd5b50610226600480360381019061022191906110b3565b610cd9565b604051610234929190611475565b60405180910390f35b6000610247610e3f565b87816020018190525086816040018190525085816000018181525050848160600181905250838160800181905250828160a001819052508060018a60405161028f919061142c565b90815260200160405180910390206000820151816000015560208201518160010190805190602001906102c3929190610e8b565b5060408201518160020190805190602001906102e0929190610e8b565b5060608201518160030190805190602001906102fd929190610e8b565b50608082015181600401908051906020019061031a929190610e8b565b5060a0820151816005019080519060200190610337929190610e8b565b5060c0820151816006019080519060200190610354929190610e8b565b5060e0820151816007019080519060200190610371929190610e8b565b5061010082015181600801908051906020019061038f929190610f11565b509050506001915050979650505050505050565b60608060036001846040516103b8919061142c565b90815260200160405180910390206007016040516103d69190611443565b908152602001604051809103902060000160036001856040516103f9919061142c565b90815260200160405180910390206007016040516104179190611443565b908152602001604051809103902060010181805461043490611655565b80601f016020809104026020016040519081016040528092919081815260200182805461046090611655565b80156104ad5780601f10610482576101008083540402835291602001916104ad565b820191906000526020600020905b81548152906001019060200180831161049057829003601f168201915b505050505091508080546104c090611655565b80601f01602080910402602001604051908101604052809291908181526020018280546104ec90611655565b80156105395780601f1061050e57610100808354040283529160200191610539565b820191906000526020600020905b81548152906001019060200180831161051c57829003601f168201915b5050505050905091509150915091565b600060028460405161055b919061142c565b908152602001604051809103902060030160009054906101000a900460ff16156105885760009050610652565b610590610f71565b8381600001819052508281602001819052506001816060019015159081151581525050806002866040516105c4919061142c565b908152602001604051809103902060008201518160000190805190602001906105ee929190610e8b565b50602082015181600101908051906020019061060b929190610e8b565b506040820151816002019080519060200190610628929190610f11565b5060608201518160030160006101000a81548160ff02191690831515021790555090505060019150505b9392505050565b6060806000606080606080600188604051610674919061142c565b9081526020016040518091039020600101600189604051610695919061142c565b908152602001604051809103902060020160018a6040516106b6919061142c565b90815260200160405180910390206000015460018b6040516106d8919061142c565b908152602001604051809103902060030160018c6040516106f9919061142c565b908152602001604051809103902060040160018d60405161071a919061142c565b908152602001604051809103902060050160018e60405161073b919061142c565b908152602001604051809103902060060186805461075890611655565b80601f016020809104026020016040519081016040528092919081815260200182805461078490611655565b80156107d15780601f106107a6576101008083540402835291602001916107d1565b820191906000526020600020905b8154815290600101906020018083116107b457829003601f168201915b505050505096508580546107e490611655565b80601f016020809104026020016040519081016040528092919081815260200182805461081090611655565b801561085d5780601f106108325761010080835404028352916020019161085d565b820191906000526020600020905b81548152906001019060200180831161084057829003601f168201915b5050505050955083805461087090611655565b80601f016020809104026020016040519081016040528092919081815260200182805461089c90611655565b80156108e95780601f106108be576101008083540402835291602001916108e9565b820191906000526020600020905b8154815290600101906020018083116108cc57829003601f168201915b505050505093508280546108fc90611655565b80601f016020809104026020016040519081016040528092919081815260200182805461092890611655565b80156109755780601f1061094a57610100808354040283529160200191610975565b820191906000526020600020905b81548152906001019060200180831161095857829003601f168201915b5050505050925081805461098890611655565b80601f01602080910402602001604051908101604052809291908181526020018280546109b490611655565b8015610a015780601f106109d657610100808354040283529160200191610a01565b820191906000526020600020905b8154815290600101906020018083116109e457829003601f168201915b50505050509150808054610a1490611655565b80601f0160208091040260200160405190810160405280929190818152602001828054610a4090611655565b8015610a8d5780601f10610a6257610100808354040283529160200191610a8d565b820191906000526020600020905b815481529060010190602001808311610a7057829003601f168201915b505050505090509650965096509650965096509650919395979092949650565b600081600184604051610ac0919061142c565b90815260200160405180910390206007019080519060200190610ae4929190610e8b565b506001905092915050565b6000610af9610f9b565b83816000018190525082816020018190525080600386604051610b1c919061142c565b90815260200160405180910390206000820151816000019080519060200190610b46929190610e8b565b506020820151816001019080519060200190610b63929190610e8b565b5090505060019150509392505050565b606080600283604051610b86919061142c565b9081526020016040518091039020600001600284604051610ba7919061142c565b9081526020016040518091039020600101818054610bc490611655565b80601f0160208091040260200160405190810160405280929190818152602001828054610bf090611655565b8015610c3d5780601f10610c1257610100808354040283529160200191610c3d565b820191906000526020600020905b815481529060010190602001808311610c2057829003601f168201915b50505050509150808054610c5090611655565b80601f0160208091040260200160405190810160405280929190818152602001828054610c7c90611655565b8015610cc95780601f10610c9e57610100808354040283529160200191610cc9565b820191906000526020600020905b815481529060010190602001808311610cac57829003601f168201915b5050505050905091509150915091565b606080600383604051610cec919061142c565b9081526020016040518091039020600001600384604051610d0d919061142c565b9081526020016040518091039020600101818054610d2a90611655565b80601f0160208091040260200160405190810160405280929190818152602001828054610d5690611655565b8015610da35780601f10610d7857610100808354040283529160200191610da3565b820191906000526020600020905b815481529060010190602001808311610d8657829003601f168201915b50505050509150808054610db690611655565b80601f0160208091040260200160405190810160405280929190818152602001828054610de290611655565b8015610e2f5780601f10610e0457610100808354040283529160200191610e2f565b820191906000526020600020905b815481529060010190602001808311610e1257829003601f168201915b5050505050905091509150915091565b6040518061012001604052806000815260200160608152602001606081526020016060815260200160608152602001606081526020016060815260200160608152602001606081525090565b828054610e9790611655565b90600052602060002090601f016020900481019282610eb95760008555610f00565b82601f10610ed257805160ff1916838001178555610f00565b82800160010185558215610f00579182015b82811115610eff578251825591602001919060010190610ee4565b5b509050610f0d9190610fb5565b5090565b828054828255906000526020600020908101928215610f60579160200282015b82811115610f5f578251829080519060200190610f4f929190610e8b565b5091602001919060010190610f31565b5b509050610f6d9190610fd2565b5090565b60405180608001604052806060815260200160608152602001606081526020016000151581525090565b604051806040016040528060608152602001606081525090565b5b80821115610fce576000816000905550600101610fb6565b5090565b5b80821115610ff25760008181610fe99190610ff6565b50600101610fd3565b5090565b50805461100290611655565b6000825580601f106110145750611033565b601f0160209004906000526020600020908101906110329190610fb5565b5b50565b600061104961104484611591565b611560565b90508281526020810184848401111561106157600080fd5b61106c848285611613565b509392505050565b600082601f83011261108557600080fd5b8135611095848260208601611036565b91505092915050565b6000813590506110ad816116f6565b92915050565b6000602082840312156110c557600080fd5b600082013567ffffffffffffffff8111156110df57600080fd5b6110eb84828501611074565b91505092915050565b6000806040838503121561110757600080fd5b600083013567ffffffffffffffff81111561112157600080fd5b61112d85828601611074565b925050602083013567ffffffffffffffff81111561114a57600080fd5b61115685828601611074565b9150509250929050565b60008060006060848603121561117557600080fd5b600084013567ffffffffffffffff81111561118f57600080fd5b61119b86828701611074565b935050602084013567ffffffffffffffff8111156111b857600080fd5b6111c486828701611074565b925050604084013567ffffffffffffffff8111156111e157600080fd5b6111ed86828701611074565b9150509250925092565b600080600080600080600060e0888a03121561121257600080fd5b600088013567ffffffffffffffff81111561122c57600080fd5b6112388a828b01611074565b975050602088013567ffffffffffffffff81111561125557600080fd5b6112618a828b01611074565b965050604088013567ffffffffffffffff81111561127e57600080fd5b61128a8a828b01611074565b955050606061129b8a828b0161109e565b945050608088013567ffffffffffffffff8111156112b857600080fd5b6112c48a828b01611074565b93505060a088013567ffffffffffffffff8111156112e157600080fd5b6112ed8a828b01611074565b92505060c088013567ffffffffffffffff81111561130a57600080fd5b6113168a828b01611074565b91505092959891949750929550565b61132e816115fd565b82525050565b600061133f826115d6565b61134981856115e1565b9350611359818560208601611622565b611362816116e5565b840191505092915050565b6000611378826115d6565b61138281856115f2565b9350611392818560208601611622565b80840191505092915050565b600081546113ab81611655565b6113b581866115f2565b945060018216600081146113d057600181146113e157611414565b60ff19831686528186019350611414565b6113ea856115c1565b60005b8381101561140c578154818901526001820191506020810190506113ed565b838801955050505b50505092915050565b61142681611609565b82525050565b6000611438828461136d565b915081905092915050565b600061144f828461139e565b915081905092915050565b600060208201905061146f6000830184611325565b92915050565b6000604082019050818103600083015261148f8185611334565b905081810360208301526114a38184611334565b90509392505050565b600060e08201905081810360008301526114c6818a611334565b905081810360208301526114da8189611334565b90506114e9604083018861141d565b81810360608301526114fb8187611334565b9050818103608083015261150f8186611334565b905081810360a08301526115238185611334565b905081810360c08301526115378184611334565b905098975050505050505050565b600060208201905061155a600083018461141d565b92915050565b6000604051905081810181811067ffffffffffffffff82111715611587576115866116b6565b5b8060405250919050565b600067ffffffffffffffff8211156115ac576115ab6116b6565b5b601f19601f8301169050602081019050919050565b60008190508160005260206000209050919050565b600081519050919050565b600082825260208201905092915050565b600081905092915050565b60008115159050919050565b6000819050919050565b82818337600083830152505050565b60005b83811015611640578082015181840152602081019050611625565b8381111561164f576000848401525b50505050565b6000600282049050600182168061166d57607f821691505b6020821081141561168157611680611687565b5b50919050565b7f4e487b7100000000000000000000000000000000000000000000000000000000600052602260045260246000fd5b7f4e487b7100000000000000000000000000000000000000000000000000000000600052604160045260246000fd5b6000601f19601f8301169050919050565b6116ff81611609565b811461170a57600080fd5b5056fea264697066735822122066568839eeb5e9fefba81f109cf35f7a4f083cd690879aaf82dcb5e80fa7b0a864736f6c63430008000033",
  "immutableReferences": {},
  "source": "// SPDX-License-Identifier: MIT\r\npragma solidity ^0.8.0;\r\npragma experimental ABIEncoderV2;\r\n\r\ncontract DetectFake {\r\n    address owner;\r\n    struct product {\r\n        uint status;\r\n        string brand;\r\n        string model;\r\n        string description;\r\n        string manufacturerName;\r\n        string manufacturerLocation;\r\n        string manufacturerTimestamp;\r\n        string retailer;\r\n        string[] customers;\r\n    }\r\n\r\n    // A struct which helps create a new customer\r\n    struct customer {\r\n        string name;\r\n        string phone;\r\n        string[] code;\r\n        bool isValue;\r\n    }\r\n\r\n    struct retailer {\r\n        string name;\r\n        string location;\r\n    }\r\n\r\n    mapping (string => product) productList;\r\n    mapping (string => customer) customerList;\r\n    mapping (string => retailer) retailerList;\r\n    /*\r\n    function createOwner() public {\r\n        owner = msg.sender;\r\n    }\r\n\r\n    modifier onlyOwner {\r\n        require(msg.sender == owner);\r\n        _;\r\n    }\r\n\r\n    function whoIsOwner() public view returns (address) {\r\n        return owner;\r\n    }\r\n*/\r\n    // Function to create a new code for the product\r\n    function makeProduct(string memory _code, string memory _brand, string memory _model, uint _status, string memory _description, string memory _manufacturerName, string memory _manufacturerLocation) public payable returns (uint) {\r\n        product memory newCode;\r\n        newCode.brand = _brand;\r\n        newCode.model = _model;\r\n        newCode.status = _status;\r\n        newCode.description = _description;\r\n        newCode.manufacturerName = _manufacturerName;\r\n        newCode.manufacturerLocation = _manufacturerLocation;\r\n        // newCode.manufacturerTimestamp = _manufacturerTimestamp;\r\n        productList[_code] = newCode;\r\n        return 1;\r\n    }\r\n\r\n    // Function for showing product details if the person scanning the product is not the owner\r\n    function getNotOwnedCodeDetails(string memory _code) public view returns (string memory, string memory, uint, string memory, string memory, string memory, string memory) {\r\n        return (productList[_code].brand, productList[_code].model, productList[_code].status, productList[_code].description, productList[_code].manufacturerName, productList[_code].manufacturerLocation, productList[_code].manufacturerTimestamp);\r\n    }\r\n\r\n    // Function for showing product details if the person scanning the product is the owner\r\n    function getOwnedCodeDetails(string memory _code) public view returns (string memory, string memory) {\r\n        return (retailerList[productList[_code].retailer].name, retailerList[productList[_code].retailer].location);\r\n    }\r\n\r\n    // Function for creating a new retailer\r\n    function addRetailerToCode(string memory _code, string memory _hashedEmailRetailer) public payable returns (uint) {\r\n        productList[_code].retailer = _hashedEmailRetailer;\r\n        return 1;\r\n    }\r\n\r\n    // Function for creating a new customer\r\n    function createCustomer(string memory _hashedEmail, string memory _name, string memory _phone) public payable returns (bool) {\r\n        if (customerList[_hashedEmail].isValue) {\r\n            return false;\r\n        }\r\n        customer memory newCustomer;\r\n        newCustomer.name = _name;\r\n        newCustomer.phone = _phone;\r\n        newCustomer.isValue = true;\r\n        customerList[_hashedEmail] = newCustomer;\r\n        return true;\r\n    }\r\n\r\n    function getCustomerDetails(string memory _code) public view returns (string memory, string memory) {\r\n        return (customerList[_code].name, customerList[_code].phone);\r\n    }\r\n\r\n    function createRetailer(string memory _hashedEmail, string memory _retailerName, string memory _retailerLocation) public payable returns (uint) {\r\n        retailer memory newRetailer;\r\n        newRetailer.name = _retailerName;\r\n        newRetailer.location = _retailerLocation;\r\n        retailerList[_hashedEmail] = newRetailer;\r\n        return 1;\r\n    }\r\n\r\n    function getRetailerDetails(string memory _code) public view returns (string memory, string memory) {\r\n        return (retailerList[_code].name, retailerList[_code].location);\r\n    }\r\n\r\n}",
  "sourcePath": "C:\\Users\\Nikhil Satish\\Desktop\\7thSem\\Blockchain\\Project\\counterfeit\\FakeProduct\\contracts\\DetectFake.sol",
  "compiler": {
    "name": "solc",
    "version": "0.8.0+commit.c7dfd78e.Emscripten.clang"
  },
  "schemaVersion": "3.4.16",
  "updatedAt": "2023-11-06T14:48:57.477Z",
  "devdoc": {
    "kind": "dev",
    "methods": {},
    "version": 1
  },
  "userdoc": {
    "kind": "user",
    "methods": {},
    "version": 1
  }
}