{
  "contractName": "DetectFake",
  "abi": [
    {
      "inputs": [
        {
          "internalType": "uint256",
          "name": "",
          "type": "uint256"
        }
      ],
      "name": "codeList",
      "outputs": [
        {
          "internalType": "uint256",
          "name": "",
          "type": "uint256"
        }
      ],
      "stateMutability": "view",
      "type": "function",
      "constant": true
    },
    {
      "inputs": [],
      "name": "mapLen",
      "outputs": [
        {
          "internalType": "uint256",
          "name": "",
          "type": "uint256"
        }
      ],
      "stateMutability": "view",
      "type": "function",
      "constant": true
    },
    {
      "inputs": [
        {
          "internalType": "uint256",
          "name": "",
          "type": "uint256"
        }
      ],
      "name": "nums",
      "outputs": [
        {
          "internalType": "uint256",
          "name": "",
          "type": "uint256"
        }
      ],
      "stateMutability": "view",
      "type": "function",
      "constant": true
    },
    {
      "inputs": [],
      "name": "getProductCodes",
      "outputs": [
        {
          "internalType": "uint256[]",
          "name": "",
          "type": "uint256[]"
        }
      ],
      "stateMutability": "view",
      "type": "function",
      "constant": true
    },
    {
      "inputs": [],
      "name": "getNums",
      "outputs": [
        {
          "internalType": "uint256[15]",
          "name": "",
          "type": "uint256[15]"
        }
      ],
      "stateMutability": "view",
      "type": "function",
      "constant": true
    },
    {
      "inputs": [
        {
          "internalType": "uint256",
          "name": "num",
          "type": "uint256"
        }
      ],
      "name": "pushNums",
      "outputs": [],
      "stateMutability": "payable",
      "type": "function",
      "payable": true
    },
    {
      "inputs": [
        {
          "internalType": "uint256",
          "name": "_code",
          "type": "uint256"
        },
        {
          "internalType": "string",
          "name": "_brand",
          "type": "string"
        },
        {
          "internalType": "string",
          "name": "_model",
          "type": "string"
        },
        {
          "internalType": "uint256",
          "name": "_status",
          "type": "uint256"
        },
        {
          "internalType": "string",
          "name": "_description",
          "type": "string"
        },
        {
          "internalType": "string",
          "name": "_manufacturerName",
          "type": "string"
        },
        {
          "internalType": "string",
          "name": "_manufacturerLocation",
          "type": "string"
        }
      ],
      "name": "makeProduct",
      "outputs": [
        {
          "internalType": "uint256",
          "name": "",
          "type": "uint256"
        }
      ],
      "stateMutability": "payable",
      "type": "function",
      "payable": true
    },
    {
      "inputs": [
        {
          "internalType": "uint256",
          "name": "_code",
          "type": "uint256"
        }
      ],
      "name": "getNotOwnedCodeDetails",
      "outputs": [
        {
          "internalType": "string",
          "name": "",
          "type": "string"
        },
        {
          "internalType": "string",
          "name": "",
          "type": "string"
        },
        {
          "internalType": "uint256",
          "name": "",
          "type": "uint256"
        },
        {
          "internalType": "string",
          "name": "",
          "type": "string"
        },
        {
          "internalType": "string",
          "name": "",
          "type": "string"
        },
        {
          "internalType": "string",
          "name": "",
          "type": "string"
        }
      ],
      "stateMutability": "view",
      "type": "function",
      "constant": true
    },
    {
      "inputs": [
        {
          "internalType": "uint256",
          "name": "_code",
          "type": "uint256"
        },
        {
          "internalType": "string",
          "name": "_hashedEmailRetailer",
          "type": "string"
        }
      ],
      "name": "addRetailerToCode",
      "outputs": [
        {
          "internalType": "uint256",
          "name": "",
          "type": "uint256"
        }
      ],
      "stateMutability": "payable",
      "type": "function",
      "payable": true
    },
    {
      "inputs": [
        {
          "internalType": "uint256",
          "name": "_code",
          "type": "uint256"
        }
      ],
      "name": "getCustomerDetails",
      "outputs": [
        {
          "internalType": "string",
          "name": "",
          "type": "string"
        },
        {
          "internalType": "string",
          "name": "",
          "type": "string"
        }
      ],
      "stateMutability": "view",
      "type": "function",
      "constant": true
    },
    {
      "inputs": [
        {
          "internalType": "uint256",
          "name": "_hashedEmail",
          "type": "uint256"
        },
        {
          "internalType": "string",
          "name": "_retailerName",
          "type": "string"
        },
        {
          "internalType": "string",
          "name": "_retailerLocation",
          "type": "string"
        }
      ],
      "name": "createRetailer",
      "outputs": [
        {
          "internalType": "uint256",
          "name": "",
          "type": "uint256"
        }
      ],
      "stateMutability": "payable",
      "type": "function",
      "payable": true
    },
    {
      "inputs": [
        {
          "internalType": "uint256",
          "name": "_code",
          "type": "uint256"
        }
      ],
      "name": "getRetailerDetails",
      "outputs": [
        {
          "internalType": "string",
          "name": "",
          "type": "string"
        },
        {
          "internalType": "string",
          "name": "",
          "type": "string"
        }
      ],
      "stateMutability": "view",
      "type": "function",
      "constant": true
    }
  ],
  "bytecode": "0x6080604052600060045534801561001557600080fd5b506115e2806100256000396000f3fe6080604052600436106100a75760003560e01c80634f171a4e116100645780634f171a4e146101bc5780639f0d7aaa146101fe578063a29dd71b1461023b578063bd4f6a331461026b578063be193fcb14610296578063fd1ee54c146102d4576100a7565b80630b938810146100ac578063191decb9146100dc578063214db81c146100f85780632c4ae716146101285780633bc9bb381461016657806347ce007814610191575b600080fd5b6100c660048036038101906100c19190610f73565b610311565b6040516100d39190611325565b60405180910390f35b6100f660048036038101906100f19190610ef6565b61038a565b005b610112600480360381019061010d9190610f1f565b6103e4565b60405161011f9190611325565b60405180910390f35b34801561013457600080fd5b5061014f600480360381019061014a9190610ef6565b61041b565b60405161015d92919061126a565b60405180910390f35b34801561017257600080fd5b5061017b61056b565b6040516101889190611325565b60405180910390f35b34801561019d57600080fd5b506101a6610571565b6040516101b3919061122c565b60405180910390f35b3480156101c857600080fd5b506101e360048036038101906101de9190610ef6565b6105bc565b6040516101f5969594939291906112a1565b60405180910390f35b34801561020a57600080fd5b5061022560048036038101906102209190610ef6565b61091c565b6040516102329190611325565b60405180910390f35b61025560048036038101906102509190610ff2565b610940565b6040516102629190611325565b60405180910390f35b34801561027757600080fd5b50610280610ac6565b60405161028d9190611248565b60405180910390f35b3480156102a257600080fd5b506102bd60048036038101906102b89190610ef6565b610b1e565b6040516102cb92919061126a565b60405180910390f35b3480156102e057600080fd5b506102fb60048036038101906102f69190610ef6565b610c6e565b6040516103089190611325565b60405180910390f35b600061031b610c89565b8381600001819052508281602001819052508060036000878152602001908152602001600020600082015181600001908051906020019061035d929190610ca3565b50602082015181600101908051906020019061037a929190610ca3565b5090505060019150509392505050565b806005600454600f81106103c7577f4e487b7100000000000000000000000000000000000000000000000000000000600052603260045260246000fd5b018190555060016004546103db9190611423565b60048190555050565b600081600160008581526020019081526020016000206007019080519060200190610410929190610ca3565b506001905092915050565b6060806002600084815260200190815260200160002060000160026000858152602001908152602001600020600101818054610456906114c5565b80601f0160208091040260200160405190810160405280929190818152602001828054610482906114c5565b80156104cf5780601f106104a4576101008083540402835291602001916104cf565b820191906000526020600020905b8154815290600101906020018083116104b257829003601f168201915b505050505091508080546104e2906114c5565b80601f016020809104026020016040519081016040528092919081815260200182805461050e906114c5565b801561055b5780601f106105305761010080835404028352916020019161055b565b820191906000526020600020905b81548152906001019060200180831161053e57829003601f168201915b5050505050905091509150915091565b60045481565b610579610d29565b6005600f806020026040519081016040528092919082600f80156105b2576020028201915b81548152602001906001019080831161059e575b5050505050905090565b606080600060608060606001600088815260200190815260200160002060010160016000898152602001908152602001600020600201600160008a815260200190815260200160002060000154600160008b8152602001908152602001600020600301600160008c8152602001908152602001600020600401600160008d8152602001908152602001600020600501858054610657906114c5565b80601f0160208091040260200160405190810160405280929190818152602001828054610683906114c5565b80156106d05780601f106106a5576101008083540402835291602001916106d0565b820191906000526020600020905b8154815290600101906020018083116106b357829003601f168201915b505050505095508480546106e3906114c5565b80601f016020809104026020016040519081016040528092919081815260200182805461070f906114c5565b801561075c5780601f106107315761010080835404028352916020019161075c565b820191906000526020600020905b81548152906001019060200180831161073f57829003601f168201915b5050505050945082805461076f906114c5565b80601f016020809104026020016040519081016040528092919081815260200182805461079b906114c5565b80156107e85780601f106107bd576101008083540402835291602001916107e8565b820191906000526020600020905b8154815290600101906020018083116107cb57829003601f168201915b505050505092508180546107fb906114c5565b80601f0160208091040260200160405190810160405280929190818152602001828054610827906114c5565b80156108745780601f1061084957610100808354040283529160200191610874565b820191906000526020600020905b81548152906001019060200180831161085757829003601f168201915b50505050509150808054610887906114c5565b80601f01602080910402602001604051908101604052809291908181526020018280546108b3906114c5565b80156109005780601f106108d557610100808354040283529160200191610900565b820191906000526020600020905b8154815290600101906020018083116108e357829003601f168201915b5050505050905095509550955095509550955091939550919395565b6014818154811061092c57600080fd5b906000526020600020016000915090505481565b600061094a610d4c565b87816020018190525086816040018190525085816000018181525050848160600181905250838160800181905250828160a0018190525080600160008b81526020019081526020016000206000820151816000015560208201518160010190805190602001906109bb929190610ca3565b5060408201518160020190805190602001906109d8929190610ca3565b5060608201518160030190805190602001906109f5929190610ca3565b506080820151816004019080519060200190610a12929190610ca3565b5060a0820151816005019080519060200190610a2f929190610ca3565b5060c0820151816006019080519060200190610a4c929190610ca3565b5060e0820151816007019080519060200190610a69929190610ca3565b50610100820151816008019080519060200190610a87929190610d98565b5090505060146103fe90806001815401808255809150506001900390600052602060002001600090919091909150556001915050979650505050505050565b60606014805480602002602001604051908101604052809291908181526020018280548015610b1457602002820191906000526020600020905b815481526020019060010190808311610b00575b5050505050905090565b6060806003600084815260200190815260200160002060000160036000858152602001908152602001600020600101818054610b59906114c5565b80601f0160208091040260200160405190810160405280929190818152602001828054610b85906114c5565b8015610bd25780601f10610ba757610100808354040283529160200191610bd2565b820191906000526020600020905b815481529060010190602001808311610bb557829003601f168201915b50505050509150808054610be5906114c5565b80601f0160208091040260200160405190810160405280929190818152602001828054610c11906114c5565b8015610c5e5780601f10610c3357610100808354040283529160200191610c5e565b820191906000526020600020905b815481529060010190602001808311610c4157829003601f168201915b5050505050905091509150915091565b600581600f8110610c7e57600080fd5b016000915090505481565b604051806040016040528060608152602001606081525090565b828054610caf906114c5565b90600052602060002090601f016020900481019282610cd15760008555610d18565b82601f10610cea57805160ff1916838001178555610d18565b82800160010185558215610d18579182015b82811115610d17578251825591602001919060010190610cfc565b5b509050610d259190610df8565b5090565b604051806101e00160405280600f90602082028036833780820191505090505090565b6040518061012001604052806000815260200160608152602001606081526020016060815260200160608152602001606081526020016060815260200160608152602001606081525090565b828054828255906000526020600020908101928215610de7579160200282015b82811115610de6578251829080519060200190610dd6929190610ca3565b5091602001919060010190610db8565b5b509050610df49190610e15565b5090565b5b80821115610e11576000816000905550600101610df9565b5090565b5b80821115610e355760008181610e2c9190610e39565b50600101610e16565b5090565b508054610e45906114c5565b6000825580601f10610e575750610e76565b601f016020900490600052602060002090810190610e759190610df8565b5b50565b6000610e8c610e8784611371565b611340565b905082815260208101848484011115610ea457600080fd5b610eaf848285611483565b509392505050565b600082601f830112610ec857600080fd5b8135610ed8848260208601610e79565b91505092915050565b600081359050610ef081611595565b92915050565b600060208284031215610f0857600080fd5b6000610f1684828501610ee1565b91505092915050565b60008060408385031215610f3257600080fd5b6000610f4085828601610ee1565b925050602083013567ffffffffffffffff811115610f5d57600080fd5b610f6985828601610eb7565b9150509250929050565b600080600060608486031215610f8857600080fd5b6000610f9686828701610ee1565b935050602084013567ffffffffffffffff811115610fb357600080fd5b610fbf86828701610eb7565b925050604084013567ffffffffffffffff811115610fdc57600080fd5b610fe886828701610eb7565b9150509250925092565b600080600080600080600060e0888a03121561100d57600080fd5b600061101b8a828b01610ee1565b975050602088013567ffffffffffffffff81111561103857600080fd5b6110448a828b01610eb7565b965050604088013567ffffffffffffffff81111561106157600080fd5b61106d8a828b01610eb7565b955050606061107e8a828b01610ee1565b945050608088013567ffffffffffffffff81111561109b57600080fd5b6110a78a828b01610eb7565b93505060a088013567ffffffffffffffff8111156110c457600080fd5b6110d08a828b01610eb7565b92505060c088013567ffffffffffffffff8111156110ed57600080fd5b6110f98a828b01610eb7565b91505092959891949750929550565b6000611114838361120e565b60208301905092915050565b611129816113bb565b61113381846113f6565b925061113e826113a1565b8060005b8381101561116f5781516111568782611108565b9650611161836113dc565b925050600181019050611142565b505050505050565b6000611182826113c6565b61118c8185611401565b9350611197836113ab565b8060005b838110156111c85781516111af8882611108565b97506111ba836113e9565b92505060018101905061119b565b5085935050505092915050565b60006111e0826113d1565b6111ea8185611412565b93506111fa818560208601611492565b61120381611584565b840191505092915050565b61121781611479565b82525050565b61122681611479565b82525050565b60006101e0820190506112426000830184611120565b92915050565b600060208201905081810360008301526112628184611177565b905092915050565b6000604082019050818103600083015261128481856111d5565b9050818103602083015261129881846111d5565b90509392505050565b600060c08201905081810360008301526112bb81896111d5565b905081810360208301526112cf81886111d5565b90506112de604083018761121d565b81810360608301526112f081866111d5565b9050818103608083015261130481856111d5565b905081810360a083015261131881846111d5565b9050979650505050505050565b600060208201905061133a600083018461121d565b92915050565b6000604051905081810181811067ffffffffffffffff8211171561136757611366611555565b5b8060405250919050565b600067ffffffffffffffff82111561138c5761138b611555565b5b601f19601f8301169050602081019050919050565b6000819050919050565b6000819050602082019050919050565b6000600f9050919050565b600081519050919050565b600081519050919050565b6000602082019050919050565b6000602082019050919050565b600081905092915050565b600082825260208201905092915050565b600082825260208201905092915050565b600061142e82611479565b915061143983611479565b9250827fffffffffffffffffffffffffffffffffffffffffffffffffffffffffffffffff0382111561146e5761146d6114f7565b5b828201905092915050565b6000819050919050565b82818337600083830152505050565b60005b838110156114b0578082015181840152602081019050611495565b838111156114bf576000848401525b50505050565b600060028204905060018216806114dd57607f821691505b602082108114156114f1576114f0611526565b5b50919050565b7f4e487b7100000000000000000000000000000000000000000000000000000000600052601160045260246000fd5b7f4e487b7100000000000000000000000000000000000000000000000000000000600052602260045260246000fd5b7f4e487b7100000000000000000000000000000000000000000000000000000000600052604160045260246000fd5b6000601f19601f8301169050919050565b61159e81611479565b81146115a957600080fd5b5056fea26469706673582212201cf5e2a0312801dbf7e8c6379ff6eb6c1a0cf1f846b9045c4f2d704788fd535364736f6c63430008000033",
  "immutableReferences": {},
  "source": "// SPDX-License-Identifier: MIT\r\npragma solidity ^0.8.0;\r\npragma experimental ABIEncoderV2;\r\n\r\ncontract DetectFake {\r\n    address owner;\r\n    struct product {\r\n        uint status;\r\n        string brand;\r\n        string model;\r\n        string description;\r\n        string manufacturerName;\r\n        string manufacturerLocation;\r\n        string manufacturerTimestamp;\r\n        string retailer;\r\n        string[] customers;\r\n    }\r\n\r\n    // A struct which helps create a new customer\r\n    struct customer {\r\n        string name;\r\n        string phone;\r\n        string[] code;\r\n        bool isValue;\r\n    }\r\n\r\n    struct retailer {\r\n        string name;\r\n        string location;\r\n    }\r\n\r\n    mapping (uint => product) productList;\r\n    mapping (uint => customer) customerList;\r\n    mapping (uint => retailer) retailerList;\r\n\r\n    uint public mapLen = 0;\r\n    uint[15] public nums;\r\n    uint[] public codeList;\r\n\r\n    function getProductCodes() public view returns(uint[] memory){\r\n        return codeList;\r\n    }\r\n    function getNums() public view returns(uint[15] memory){\r\n        return nums;\r\n    }\r\n    function pushNums(uint num) public payable {\r\n        // return 1;\r\n        nums[mapLen] = num;\r\n        mapLen = mapLen+1;\r\n    }\r\n    // Function to create a new code for the product\r\n    function makeProduct(uint _code, string memory _brand, string memory _model, uint _status, string memory _description, string memory _manufacturerName, string memory _manufacturerLocation) public payable returns (uint) {\r\n        product memory newCode;\r\n        newCode.brand = _brand;\r\n        newCode.model = _model;\r\n        newCode.status = _status;\r\n        newCode.description = _description;\r\n        newCode.manufacturerName = _manufacturerName;\r\n        newCode.manufacturerLocation = _manufacturerLocation;\r\n        // newCode.manufacturerTimestamp = _manufacturerTimestamp;\r\n        productList[_code] = newCode;\r\n        codeList.push(1022);\r\n        // mapLen = mapLen+1;\r\n        return 1;\r\n    }\r\n\r\n    // Function for showing product details if the person scanning the product is not the owner\r\n    function getNotOwnedCodeDetails(uint _code) public view returns (string memory, string memory, uint, string memory, string memory, string memory) {\r\n        return (productList[_code].brand, productList[_code].model, productList[_code].status, productList[_code].description, productList[_code].manufacturerName, productList[_code].manufacturerLocation);\r\n    }\r\n\r\n    // Function for showing product details if the person scanning the product is the owner\r\n    // function getOwnedCodeDetails(uint _code) public view returns (string memory, string memory) {\r\n    //     return (retailerList[productList[_code].retailer].name, retailerList[productList[_code].retailer].location);\r\n    // }\r\n\r\n    // Function for creating a new retailer\r\n    function addRetailerToCode(uint _code, string memory _hashedEmailRetailer) public payable returns (uint) {\r\n        productList[_code].retailer = _hashedEmailRetailer;\r\n        return 1;\r\n    }\r\n\r\n    // Function for creating a new customer\r\n    // function createCustomer(string memory _hashedEmail, string memory _name, string memory _phone) public payable returns (bool) {\r\n    //     if (customerList[_hashedEmail].isValue) {\r\n    //         return false;\r\n    //     }\r\n    //     customer memory newCustomer;\r\n    //     newCustomer.name = _name;\r\n    //     newCustomer.phone = _phone;\r\n    //     newCustomer.isValue = true;\r\n    //     customerList[_hashedEmail] = newCustomer;\r\n    //     return true;\r\n    // }\r\n\r\n    function getCustomerDetails(uint _code) public view returns (string memory, string memory) {\r\n        return (customerList[_code].name, customerList[_code].phone);\r\n    }\r\n\r\n    function createRetailer(uint _hashedEmail, string memory _retailerName, string memory _retailerLocation) public payable returns (uint) {\r\n        retailer memory newRetailer;\r\n        newRetailer.name = _retailerName;\r\n        newRetailer.location = _retailerLocation;\r\n        retailerList[_hashedEmail] = newRetailer;\r\n        return 1;\r\n    }\r\n\r\n    function getRetailerDetails(uint _code) public view returns (string memory, string memory) {\r\n        return (retailerList[_code].name, retailerList[_code].location);\r\n    }\r\n\r\n}",
  "sourcePath": "C:\\Users\\Nikhil Satish\\Desktop\\7thSem\\Blockchain\\Project\\counterfeit\\FakeProduct\\contracts\\DetectFake.sol",
  "compiler": {
    "name": "solc",
    "version": "0.8.0+commit.c7dfd78e.Emscripten.clang"
  },
  "schemaVersion": "3.4.16",
  "updatedAt": "2023-11-09T09:09:50.975Z",
  "networkType": "ethereum",
  "devdoc": {
    "kind": "dev",
    "methods": {},
    "version": 1
  },
  "userdoc": {
    "kind": "user",
    "methods": {},
    "version": 1
  }
}