{
  "contractName": "Trial",
  "abi": [
    {
      "inputs": [
        {
          "internalType": "string",
          "name": "",
          "type": "string"
        }
      ],
      "name": "map",
      "outputs": [
        {
          "internalType": "uint256",
          "name": "",
          "type": "uint256"
        }
      ],
      "stateMutability": "view",
      "type": "function",
      "constant": true
    },
    {
      "inputs": [
        {
          "internalType": "uint256",
          "name": "num1",
          "type": "uint256"
        },
        {
          "internalType": "uint256",
          "name": "num2",
          "type": "uint256"
        }
      ],
      "name": "getResult",
      "outputs": [
        {
          "internalType": "uint256",
          "name": "",
          "type": "uint256"
        }
      ],
      "stateMutability": "nonpayable",
      "type": "function"
    },
    {
      "inputs": [
        {
          "internalType": "string",
          "name": "_name",
          "type": "string"
        }
      ],
      "name": "modString",
      "outputs": [
        {
          "internalType": "uint256",
          "name": "",
          "type": "uint256"
        }
      ],
      "stateMutability": "payable",
      "type": "function",
      "payable": true
    },
    {
      "inputs": [
        {
          "internalType": "string",
          "name": "_name",
          "type": "string"
        }
      ],
      "name": "giveString",
      "outputs": [
        {
          "internalType": "uint256",
          "name": "",
          "type": "uint256"
        },
        {
          "internalType": "string",
          "name": "",
          "type": "string"
        }
      ],
      "stateMutability": "view",
      "type": "function",
      "constant": true
    }
  ],
  "bytecode": "0x6080604052600a600055600c6001556002805534801561001e57600080fd5b506105e38061002e6000396000f3fe60806040526004361061003f5760003560e01c806323814fc514610044578063949f80c514610081578063983733dc146100be578063fbf51d03146100fc575b600080fd5b34801561005057600080fd5b5061006b600480360381019061006691906102a5565b61012c565b60405161007891906103b2565b60405180910390f35b34801561008d57600080fd5b506100a860048036038101906100a391906102e6565b61015a565b6040516100b591906103b2565b60405180910390f35b3480156100ca57600080fd5b506100e560048036038101906100e091906102a5565b610179565b6040516100f39291906103cd565b60405180910390f35b610116600480360381019061011191906102a5565b6101db565b60405161012391906103b2565b60405180910390f35b6003818051602081018201805184825260208301602085012081835280955050505050506000915090505481565b600081836101689190610485565b600281905550600254905092915050565b6000606060038360405161018d919061039b565b9081526020016040518091039020546040518060400160405280600281526020017f686900000000000000000000000000000000000000000000000000000000000081525091509150915091565b60006002546003836040516101f0919061039b565b908152602001604051809103902081905550600382604051610212919061039b565b9081526020016040518091039020549050919050565b600061023b6102368461042e565b6103fd565b90508281526020810184848401111561025357600080fd5b61025e8482856104e5565b509392505050565b600082601f83011261027757600080fd5b8135610287848260208601610228565b91505092915050565b60008135905061029f81610596565b92915050565b6000602082840312156102b757600080fd5b600082013567ffffffffffffffff8111156102d157600080fd5b6102dd84828501610266565b91505092915050565b600080604083850312156102f957600080fd5b600061030785828601610290565b925050602061031885828601610290565b9150509250929050565b600061032d8261045e565b6103378185610469565b93506103478185602086016104f4565b61035081610585565b840191505092915050565b60006103668261045e565b610370818561047a565b93506103808185602086016104f4565b80840191505092915050565b610395816104db565b82525050565b60006103a7828461035b565b915081905092915050565b60006020820190506103c7600083018461038c565b92915050565b60006040820190506103e2600083018561038c565b81810360208301526103f48184610322565b90509392505050565b6000604051905081810181811067ffffffffffffffff8211171561042457610423610556565b5b8060405250919050565b600067ffffffffffffffff82111561044957610448610556565b5b601f19601f8301169050602081019050919050565b600081519050919050565b600082825260208201905092915050565b600081905092915050565b6000610490826104db565b915061049b836104db565b9250827fffffffffffffffffffffffffffffffffffffffffffffffffffffffffffffffff038211156104d0576104cf610527565b5b828201905092915050565b6000819050919050565b82818337600083830152505050565b60005b838110156105125780820151818401526020810190506104f7565b83811115610521576000848401525b50505050565b7f4e487b7100000000000000000000000000000000000000000000000000000000600052601160045260246000fd5b7f4e487b7100000000000000000000000000000000000000000000000000000000600052604160045260246000fd5b6000601f19601f8301169050919050565b61059f816104db565b81146105aa57600080fd5b5056fea26469706673582212207a73f9fddb2321e2ce68e07f00cbd8e82da082ff122b866b2f419e205e1e165864736f6c63430008000033",
  "immutableReferences": {},
  "source": "// SPDX-License-Identifier: MIT\r\npragma solidity ^0.8.0;\r\n\r\ncontract Trial{\r\n    uint a=10;\r\n    uint b=12;\r\n    uint sum = 2;\r\n    mapping(string => uint) public map;\r\n    mapping(uint => string) check;\r\n    // check public ch = check(\"Nik\");\r\n    // check[2] = \"NIH\";\r\n    // map[\"nik\"] = 3;\r\n    function getResult(uint num1, uint num2) public returns(uint){\r\n        sum=num1+num2;\r\n        return sum;\r\n    }\r\n    function modString(string memory _name) public payable returns (uint){\r\n        map[_name] = sum;\r\n        return map[_name];\r\n    }\r\n    function giveString(string memory _name) public view returns (uint, string memory){\r\n        return (map[_name], \"hi\");\r\n    }\r\n}",
  "sourcePath": "C:\\Users\\Nikhil Satish\\Desktop\\7thSem\\Blockchain\\Project\\counterfeit\\FakeProduct\\contracts\\Trial.sol",
  "compiler": {
    "name": "solc",
    "version": "0.8.0+commit.c7dfd78e.Emscripten.clang"
  },
  "schemaVersion": "3.4.16",
  "updatedAt": "2023-11-04T13:14:10.506Z",
  "networkType": "ethereum",
  "devdoc": {
    "kind": "dev",
    "methods": {},
    "version": 1
  },
  "userdoc": {
    "kind": "user",
    "methods": {},
    "version": 1
  }
}