{
  "contractName": "Trial",
  "abi": [
    {
      "inputs": [
        {
          "internalType": "string",
          "name": "",
          "type": "string"
        }
      ],
      "name": "map",
      "outputs": [
        {
          "internalType": "uint256",
          "name": "",
          "type": "uint256"
        }
      ],
      "stateMutability": "view",
      "type": "function",
      "constant": true
    },
    {
      "inputs": [],
      "name": "sum",
      "outputs": [
        {
          "internalType": "uint256",
          "name": "",
          "type": "uint256"
        }
      ],
      "stateMutability": "view",
      "type": "function",
      "constant": true
    },
    {
      "inputs": [
        {
          "internalType": "uint256",
          "name": "num1",
          "type": "uint256"
        },
        {
          "internalType": "uint256",
          "name": "num2",
          "type": "uint256"
        }
      ],
      "name": "getResult",
      "outputs": [
        {
          "internalType": "uint256",
          "name": "",
          "type": "uint256"
        }
      ],
      "stateMutability": "payable",
      "type": "function",
      "payable": true
    },
    {
      "inputs": [
        {
          "internalType": "string",
          "name": "_name",
          "type": "string"
        }
      ],
      "name": "modString",
      "outputs": [
        {
          "internalType": "uint256",
          "name": "",
          "type": "uint256"
        }
      ],
      "stateMutability": "nonpayable",
      "type": "function"
    },
    {
      "inputs": [
        {
          "internalType": "string",
          "name": "_name",
          "type": "string"
        }
      ],
      "name": "giveString",
      "outputs": [
        {
          "internalType": "uint256",
          "name": "",
          "type": "uint256"
        },
        {
          "internalType": "string",
          "name": "",
          "type": "string"
        }
      ],
      "stateMutability": "view",
      "type": "function",
      "constant": true
    },
    {
      "inputs": [],
      "name": "dummy1",
      "outputs": [
        {
          "internalType": "uint256",
          "name": "",
          "type": "uint256"
        }
      ],
      "stateMutability": "nonpayable",
      "type": "function"
    },
    {
      "inputs": [],
      "name": "dummy2",
      "outputs": [
        {
          "internalType": "uint256",
          "name": "",
          "type": "uint256"
        }
      ],
      "stateMutability": "payable",
      "type": "function",
      "payable": true
    }
  ],
  "bytecode": "0x6080604052600a600055600c6001556002805534801561001e57600080fd5b506106a08061002e6000396000f3fe6080604052600436106100705760003560e01c8063853255cc1161004e578063853255cc146100fb578063949f80c514610126578063983733dc14610156578063fbf51d031461019457610070565b80631d527cde1461007557806323814fc5146100935780632545d8b7146100d0575b600080fd5b61007d6101d1565b60405161008a919061046f565b60405180910390f35b34801561009f57600080fd5b506100ba60048036038101906100b59190610362565b6101da565b6040516100c7919061046f565b60405180910390f35b3480156100dc57600080fd5b506100e5610208565b6040516100f2919061046f565b60405180910390f35b34801561010757600080fd5b50610110610211565b60405161011d919061046f565b60405180910390f35b610140600480360381019061013b91906103a3565b610217565b60405161014d919061046f565b60405180910390f35b34801561016257600080fd5b5061017d60048036038101906101789190610362565b610236565b60405161018b92919061048a565b60405180910390f35b3480156101a057600080fd5b506101bb60048036038101906101b69190610362565b610298565b6040516101c8919061046f565b60405180910390f35b60006004905090565b6003818051602081018201805184825260208301602085012081835280955050505050506000915090505481565b60006002905090565b60025481565b600081836102259190610542565b600281905550600254905092915050565b6000606060038360405161024a9190610458565b9081526020016040518091039020546040518060400160405280600281526020017f686900000000000000000000000000000000000000000000000000000000000081525091509150915091565b60006002546003836040516102ad9190610458565b9081526020016040518091039020819055506003826040516102cf9190610458565b9081526020016040518091039020549050919050565b60006102f86102f3846104eb565b6104ba565b90508281526020810184848401111561031057600080fd5b61031b8482856105a2565b509392505050565b600082601f83011261033457600080fd5b81356103448482602086016102e5565b91505092915050565b60008135905061035c81610653565b92915050565b60006020828403121561037457600080fd5b600082013567ffffffffffffffff81111561038e57600080fd5b61039a84828501610323565b91505092915050565b600080604083850312156103b657600080fd5b60006103c48582860161034d565b92505060206103d58582860161034d565b9150509250929050565b60006103ea8261051b565b6103f48185610526565b93506104048185602086016105b1565b61040d81610642565b840191505092915050565b60006104238261051b565b61042d8185610537565b935061043d8185602086016105b1565b80840191505092915050565b61045281610598565b82525050565b60006104648284610418565b915081905092915050565b60006020820190506104846000830184610449565b92915050565b600060408201905061049f6000830185610449565b81810360208301526104b181846103df565b90509392505050565b6000604051905081810181811067ffffffffffffffff821117156104e1576104e0610613565b5b8060405250919050565b600067ffffffffffffffff82111561050657610505610613565b5b601f19601f8301169050602081019050919050565b600081519050919050565b600082825260208201905092915050565b600081905092915050565b600061054d82610598565b915061055883610598565b9250827fffffffffffffffffffffffffffffffffffffffffffffffffffffffffffffffff0382111561058d5761058c6105e4565b5b828201905092915050565b6000819050919050565b82818337600083830152505050565b60005b838110156105cf5780820151818401526020810190506105b4565b838111156105de576000848401525b50505050565b7f4e487b7100000000000000000000000000000000000000000000000000000000600052601160045260246000fd5b7f4e487b7100000000000000000000000000000000000000000000000000000000600052604160045260246000fd5b6000601f19601f8301169050919050565b61065c81610598565b811461066757600080fd5b5056fea26469706673582212208187b8db0f90d4a7b6536c40f19feb53b818c80019e8137575bfc4fe422e8d8d64736f6c63430008000033",
  "immutableReferences": {},
  "source": "// SPDX-License-Identifier: MIT\r\npragma solidity ^0.8.0;\r\n\r\ncontract Trial{\r\n    uint a=10;\r\n    uint b=12;\r\n    uint public sum = 2;\r\n    mapping(string => uint) public map;\r\n    mapping(uint => string) check;\r\n    // check public ch = check(\"Nik\");\r\n    // check[2] = \"NIH\";\r\n    // map[\"nik\"] = 3;\r\n    function getResult(uint num1, uint num2) public payable returns(uint){\r\n        sum=num1+num2;\r\n        return sum;\r\n    }\r\n    function modString(string memory _name) public returns (uint){\r\n        map[_name] = sum;\r\n        return map[_name];\r\n    }\r\n    function giveString(string memory _name) public view returns (uint, string memory){\r\n        return (map[_name], \"hi\");\r\n    }\r\n    function dummy1() public returns(uint){\r\n        return 2;\r\n    }\r\n    function dummy2() public payable returns(uint){\r\n        return 4;\r\n    }\r\n}",
  "sourcePath": "C:\\Users\\Nikhil Satish\\Desktop\\7thSem\\Blockchain\\Project\\counterfeit\\FakeProduct\\contracts\\Trial.sol",
  "compiler": {
    "name": "solc",
    "version": "0.8.0+commit.c7dfd78e.Emscripten.clang"
  },
  "schemaVersion": "3.4.16",
  "updatedAt": "2023-11-06T10:32:40.442Z",
  "networkType": "ethereum",
  "devdoc": {
    "kind": "dev",
    "methods": {},
    "version": 1
  },
  "userdoc": {
    "kind": "user",
    "methods": {},
    "version": 1
  }
}